:1000000032C0000033C00000FBCF0000F9CF000079
:10001000F7CF0000F5CF0000F3CF0000F1CF0000D4
:10002000EFCF0000EDCF0000EBCF0000E9CF0000E4
:10003000E7CF0000E5CF0000E3CF0000E1CF0000F4
:10004000DFCF0000DDCF0000DBCF0000D9CF000004
:10005000D7CF0000D5CF0000D3CF0000D1CF000014
:10006000CFCF0000CDCFEDEDF3E30994EF93FF93F5
:10007000E0E1F4E30994002329F4112319F4222385
:1000800009F433230895F7DF79F0632F6078220FA6
:10009000331F432F5FE7451B55275040269530E817
:1000A000232B3327989403C04427552766270895A8
:1000B00000951095209530950F5F1F4F2F4F3F4FA4
:1000C0000895D9DF39F041585F4F342F220F36950C
:1000D0002795362B0895CFDF11F19F938F938EE7ED
:1000E00090E0332351F036952795179507954817DB
:1000F0005907B4F44F5F5F4FF4CF80959095019608
:1001000022239AF0000F111F221F481759071CF0D5
:1001100041505040F5CF002711272227332708C030
:1001200033270FEF102F2FE7322F8F919F91C9DFC9
:100130000895A9DF21F0662309F0BADF98940895A5
:10014000F8DF09F441C0E62ED52EC42EB32EA22E20
:10015000912E802E002D112D222D332DEADF09F452
:100160003DC0842F952F8C199D09B9F072F490959C
:10017000809501964C2D5D2D883180F5359527951C
:10018000179507950197D1F708C08831E8F4B59421
:10019000A794979487940197D1F766272EF0080DBE
:1001A000191D2A1D3B1D09C0801A910AA20AB30A13
:1001B000082D192D2A2D3B2D332312F479DF60E809
:1001C0008ADF01C07EDF16C0002D112D222D332DB8
:1001D000D6F751DFC1F340E83427F5CF082D192DAC
:1001E0002A2D3B2D4C2D5D2D6E2D33235AF760DFCC
:1001F00060E8E8CF0895B091C000B5FD01C0FBCF25
:10020000B091C000B6FF05C0B091C000B064B0931B
:10021000C0002092C6000895689492DF089500916E
:10022000B900087F0895CF93DF93CDB7DEB7249749
:10023000CDBFDEBF2196BEE62B1608F460C044E6B3
:10024000022DEBD310E00E5E1F4F9801220F331FDB
:10025000220F331F05EC1BE6F901E00FF11F05919A
:100260001591259135912F9240E050E060E07FE3B9
:10027000EBE7FAE209952F90088319832A833B83E1
:1002800044E6022DCAD3092F4AE0C7D310E0075F26
:100290001F4F9801220F331F220F331F05EC1BE65F
:1002A000F901E00FF11F4591559165917591088114
:1002B00019812A813B812F92EBE7FAE209952F9071
:1002C000088319832A833B834AE0022DA6D3092F92
:1002D000202F30E0220F331F220F331F05EC1BE6C7
:1002E000F901E00FF11F45915591659175910881D4
:1002F00019812A813B81EBE7FAE2099556C00AE0B1
:10030000021508F03CC04AE0022D87D310E0075FD9
:100310001F4F9801220F331F220F331F05EC1BE6DE
:10032000F901E00FF11F05911591259135912F925B
:1003300040E050E060E07FE3EBE7FAE209952F90C0
:10034000088319832A833B834AE0022D66D3092F51
:10035000202F30E0220F331F220F331F05EC1BE646
:10036000F901E00FF11F4591559165917591088153
:1003700019812A813B81EBE7FAE2099516C0222D0B
:1003800030E0220F331F220F331F05EC1BE6F9016B
:10039000E00FF11F059115912591359140E050E056
:1003A00060E07FE3EBE7FAE209952396CDBFDEBF7D
:1003B000DF91CF910895B4E9B093BC0008952F92D6
:1003C0004091530150915401609155017091560133
:1003D0002092BB00B4E8B093BC00B091BC00B7FD64
:1003E00024C0009153011091540120915501309186
:1003F0005601B02FB12BB22BB32BB1F0B42FB52BCC
:10040000B62BB72B41F4B4E02B2EE0918003F09192
:10041000810309950AC08A019B01015010402040C8
:100420003040A801B90100C0D8CF2F900895CF93D4
:10043000DF93CDB7DEB72497CDBFDEBF2196B0E006
:100440002B160CF0DBC000E00219202E0E360CF447
:1004500079C02F9244E650E0022D10E027FC1FEFF8
:10046000E5EBF1E20995062F2F9010E007FD1FEF55
:100470000E5E1F4F9801220F331F220F331F05EC12
:100480001BE6F901E00FF11F0591159125913591BA
:10049000088319832A833B832F9244E650E0022D80
:1004A00010E027FC1FEFE5EBF1E20995082F10E0C3
:1004B00007FD1FEF4AE050E0E5EBF1E20995062F5A
:1004C00010E007FD1FEF075F1F4F9801220F331F3A
:1004D000220F331F05EC1BE6F901E00FF11F4591D8
:1004E000559165917591088119812A813B81EBE7CE
:1004F000FAE209952F90088319832A833B834AE007
:1005000050E0022D10E027FC1FEFE5EBF1E209952A
:10051000082F202F30E007FD3FEF220F331F220F5F
:10052000331F05EC1BE6F901E00FF11F45915591D2
:1005300065917591088119812A813B81EBE7FAE287
:10054000099534C10AE002150CF046C02F924AE02A
:1005500050E0022D10E027FC1FEFE5EBF1E20995DA
:10056000062F2F9010E007FD1FEF075F1F4F980128
:10057000220F331F220F331F05EC1BE6F901E00F9A
:10058000F11F0591159125913591088319832A83CF
:100590003B834AE050E0022D10E027FC1FEFE5EB23
:1005A000F1E20995082F202F30E007FD3FEF220FE1
:1005B000331F220F331F05EC1BE6F901E00FF11F7B
:1005C0004591559165917591088119812A813B81E9
:1005D000EBE7FAE20995EAC0222D30E027FC3FEF75
:1005E000220F331F220F331F05EC1BE6F901E00F2A
:1005F000F11F0591159125913591D8C0BEE62B16B6
:100600000CF479C02F9244E650E0022D10E027FC54
:100610001FEFE5EBF1E20995062F2F9010E007FDA3
:100620001FEF0E5E1F4F9801220F331F220F331F43
:1006300001E91BE6F901E00FF11F059115912591E4
:100640003591088319832A833B832F9244E650E037
:10065000022D10E027FC1FEFE5EBF1E20995082FD2
:1006600010E007FD1FEF4AE050E0E5EBF1E20995ED
:10067000062F10E007FD1FEF075F1F4F9801220FA5
:10068000331F220F331F01E91BE6F901E00FF11FB1
:100690004591559165917591088119812A813B8118
:1006A000EBE7FAE209952F90088319832A833B83AD
:1006B0004AE050E0022D10E027FC1FEFE5EBF1E2ED
:1006C0000995082F202F30E007FD3FEF220F331F41
:1006D000220F331F01E91BE6F901E00FF11F4591DD
:1006E000559165917591088119812A813B81EBE7CC
:1006F000FAE209955BC00AE002150CF046C02F92A1
:100700004AE050E0022D10E027FC1FEFE5EBF1E29C
:100710000995062F2F9010E007FD1FEF075F1F4F71
:100720009801220F331F220F331F01E91BE6F90145
:10073000E00FF11F059115912591359108831983DB
:100740002A833B834AE050E0022D10E027FC1FEF94
:10075000E5EBF1E20995082F202F30E007FD3FEF90
:10076000220F331F220F331F01E91BE6F901E00FAF
:10077000F11F4591559165917591088119812A81E3
:100780003B81EBE7FAE2099511C0222D30E027FC0E
:100790003FEF220F331F220F331F01E91BE6F90140
:1007A000E00FF11F05911591259135912396CDBF4D
:1007B000DEBFDF91CF91089509E3021528F0B0E381
:1007C0002B1610F001E001C000E00895042E152E54
:1007D000262E372E21DD002E112E222E332E0895A7
:1007E00052DCF1F05523C2F04F31A8F44731C1F08B
:1007F00050F44195495E05C03595279517950795A5
:100800004A95D1F70DC04751000F111F221F331F0A
:100810004A95D1F705C03FE7232F132F032F03C0BD
:10082000662309F045DC0895C801BA01AA1BBB1B69
:1008300051E107C0AA1FBB1FA617B70710F0A61BE0
:10084000B70B881F991F5A95A9F780959095089521
:10085000C9019A01AB01B801A1E21A2EAA1BBB1B68
:10086000FD010DC0AA1FBB1FEE1FFF1FA217B3077C
:10087000E407F50720F0A20BB30BE40BF50B661FA2
:10088000771F881F991F1A9469F760957095809556
:1008900090950895C1DC332332F0EDDB11F001E0D7
:1008A00003C0002701C00FEF08952227002400FF96
:1008B00002C0040E251F440F551F4115510529F094
:1008C000169507951050004091F7122F002D0895AE
:1008D0004AD01CF00024039401C00024089543D0A2
:1008E00019F00024039401C0002408952F92409130
:1008F0005301509154016091550170915601B4EA31
:10090000B093BC00B091BC00B7FD25C0009153016D
:10091000109154012091550130915601B02FB12B07
:10092000B22BB32BB9F0B42FB52BB62BB72B49F4A0
:10093000B5E02B2EE0918003F0918103099501E051
:1009400010C08A019B010150104020403040A80196
:10095000B90100C0D7CF63DC0830B0E009F0B1E0E6
:100960000B2F2F900895042E152E262E372E92DF52
:1009700000230895CF93DF93CDB7DEB72297CDBF85
:10098000DEBF219610E0153050F4E12FF0E0E40DC9
:10099000F51DB0E2B083012F0F5F102FF4CFE12FD0
:1009A000F0E0E40DF51DB0E0B083012F0150302FD1
:1009B000032F10E0040D151D088319834AE050E051
:1009C000810132DF8D01202F205D08811981F8011E
:1009D00020834AE050E0810127DF8C0118011030AC
:1009E00009F4003009F404C0032F0150302FE0CF88
:1009F0002196CDBFDEBFDF91CF9108952F923F9218
:100A00002F9274DFB0ED2B2EDADC2F90D8DC3F90E4
:100A1000232CD5DCD0DC2F900895992779E004C0F1
:100A2000991F941708F0941B001F7A95C9F7009539
:100A30000895CF93DF93CDB7DEB7A397CDBFDEBFC9
:100A40002196B0E0B98FBA8FF20182010F5F1F4F7C
:100A5000280104910A87002319F4E3EFF2E10994D5
:100A60000A85053271F00A85F101008381010F5F6B
:100A70001F4F1801098D1A8D0F5F1F4F098F1A8F95
:100A8000E3CFB0E0BB87BC87B0E0BD87BE8732C094
:100A90000D851E8508600D871E8782010F5F1F4F21
:100AA00028013DC00D851E8501600D871E878201CE
:100AB0000F5F1F4F280133C00D851E8502600D8713
:100AC0001E8782010F5F1F4F280129C00D851E85DB
:100AD00018600D871E8782010F5F1F4F28011FC0FE
:100AE0000D851E8504600D871E8782010F5F1F4FD5
:100AF000280115C0F20104910D3251F2F201049166
:100B0000003281F2F20104910B32B1F2F201049150
:100B10000332E1F2F2010491003311F301C0B7CFC7
:100B20000D851E8501FF05C00D851E850E7F0D8775
:100B30001E870D851E8503FF05C00D851E850B7F55
:100B40000D871E87F201049110E03F922F92202E14
:100B500033DE2F903F90002309F1B0E0BB87BC87C4
:100B60000B851C854AE050E0A0DEF2012491020FC3
:100B7000B0E01B1F005310400B871C8782010F5FE2
:100B80001F4F2801F801049110E03F922F92202E70
:100B900013DE2F903F90002319F716C0F201049145
:100BA0000A3291F4F30121913191F90101911191EE
:100BB0000B871C8789010E5F1F4FF301019311936F
:100BC00082010F5F1F4F2801F20104910E3209F0DC
:100BD0003DC082010F5F1F4F2801F80104910A32C6
:100BE00099F4F30121913191F90101911191088753
:100BF000198789010E5F1F4FF30101931193820141
:100C00000F5F1F4F280121C0B0E0B887B987F201FC
:100C1000049110E03F922F92202ECEDD2F903F9036
:100C2000002399F0088519854AE050E03EDEF20184
:100C30002491020FB0E01B1F005310400887198752
:100C400082010F5F1F4F2801E2CF08C0B0E0B887D4
:100C5000B9870D851E8510610D871E87F2018201FF
:100C60000F5F1F4F280104910A87FFC0098D1A8D5D
:100C7000E5EFF2E109940D851E8500610D871E8761
:100C8000EDCF0D851E8514600D871E872FC10D8544
:100C90001E8500620D871E870D851E8511600D87DC
:100CA0001E8724C10D851E8512600D871E871EC1FB
:100CB0000D851E8500640D871E8718C117C10D851F
:100CC0001E8500620D871E870D851E8500680D87B5
:100CD0001E870CC1F30101911191F801019111914D
:100CE0000D8B1E8BF301019111910E5F1F4FF301CC
:100CF000019311930D891E89103009F4003021F4FD
:100D0000B7E5BD8BB1E0BE8BB0E0BF8BB88F2D894E
:100D10003E890F89188DF801E20FF31F008100232F
:100D200039F00F89188D0F5F1F4F0F8B188FEFCF82
:100D300008851985B02FB12B59F0288539850F8981
:100D4000188D2017310720F4088519850F8B188F0F
:100D50002B853C850F89188D0217130748F40F88DF
:100D6000188C0B851C85001911090B871C8703C083
:100D7000B0E0BB87BC870D851E8503FD19C02B85A0
:100D80003C850B851C85015010400B871C87B22FBA
:100D9000B32B71F0F101B0E2B08381010F5F1F4FFF
:100DA0001801098D1A8D0F5F1F4F098F1A8FE7CF1A
:100DB0002F89388D0F89188D015010400F8B188F97
:100DC000B22FB32BB1F0ED89FE890081F1010083D0
:100DD00081010F5F1F4F18010D891E890F5F1F4F83
:100DE0000D8B1E8B098D1A8D0F5F1F4F098F1A8F68
:100DF000DFCF0D851E8503FF19C02B853C850B8534
:100E00001C85015010400B871C87B22FB32B71F04B
:100E1000F101B0E2B08381010F5F1F4F1801098D0E
:100E20001A8D0F5F1F4F098F1A8FE7CF0DCEF30179
:100E300001911191F80100810A87F301019111914B
:100E40000E5F1F4FF301019311938E01065F1F4F39
:100E50000D8B1E8BB1E0BF8BB0E0B88F69CF0D85D5
:100E60001E85006C0D871E8741C00A85003009F47D
:100E7000FDCE0A850C3609F4FECE0A850C3409F441
:100E8000FACE0A85063609F4FCCE0A85053409F443
:100E9000FECE0A85053609F4FFCE0A85073609F429
:100EA00001CF0A850F3609F403CF0A85043609F409
:100EB00005CF0A85093609F401CF0A85003709F400
:100EC000FECE0A85083509F4FACE0A85083709F4FA
:100ED000FBCE0A85033709F4FDCE0A85033609F4F3
:100EE000A6CF0A85053709F4BACFAFCF0D851E8589
:100EF00000701770B02FB12B19F4E7E7FFE00994E9
:100F00000D851E8514FF04C0B6E0B887B0E0B98730
:100F1000F30101911191F801019111912191319108
:100F20000F87188B298B3A8BF301019111910C5F7C
:100F30001F4FF301019311933F922F9240E050E035
:100F400060E070E00F85188929893A89E6E4F4E1C8
:100F50000995002800E009F001E02F903F90002360
:100F6000A9F00F85188929893A89B0E00B27B0E0EC
:100F70001B27B0E02B27B0E83B270F87188B298B66
:100F80003A8B0D851E8503600D871E87B0E0BB8BF5
:100F9000BC8B3F922F920F85188929893A8940E0AE
:100FA00050E060E070E09BDC002800E009F001E028
:100FB0002F903F90002309F491C0AE014D5E5F4F2A
:100FC000FE013F960191119121913191B7E1369542
:100FD000279517950795BA95D1F710700E571040C1
:100FE000FA01019311930B891C89015010400B8B5E
:100FF0001C8B43E050E059DC0B8B1C8B7F926F9273
:101000005F924F923F922F924AE050E0E5EBF1E27F
:1010100009958B012F903F904F905F906F907F903C
:101020000B8B1C8B20E030E00217130734F40B8984
:101030001C89015010400B8B1C8B0B8800E00019A1
:101040007F926F925F924F923F922F92202EEFD914
:101050002F903F904F905F906F907F903F922F9294
:101060004F85588969897A89EBE7FAE209950D8BF2
:101070001E8B2F8B388F40E050E060E87FE30D89B6
:101080001E892F89388DE6E4F4E10995002800E0F7
:1010900009F001E02F903F90002339F00B891C8963
:1010A000015010400B8B1C8B19C03F922F9240E0D7
:1010B00050E060E271E40D891E892F89388D08DCCB
:1010C000002800E009F001E02F903F90002331F06C
:1010D0000B891C890F5F1F4F0B8B1C8B2B893C8945
:1010E00000E010E0021713071CF0B1E0BA8702C05D
:1010F0000B890A870D851E8510FD15C00D851E857F
:1011000011FF10C02B893C890CEF1FEF201731070E
:1011100044F02B893C8908851985201731070CF488
:1011200001C001C062C308851985B02FB12B51F0F1
:101130000D851E8511FF06C00885198501501040D8
:10114000088719872885398508E010E002171307FA
:1011500018F4B8E0BA8702C008850A873F922F9238
:101160000F85188929893A8940E050E060E070E0F5
:10117000B6DB002800E009F001E02F903F9000234B
:1011800009F4C4C07F926F925F924F923F922F9268
:101190002B884DD9A801B9010F85188929893A8969
:1011A000ECEDF4E209950F87188B298B3A8B0A84B2
:1011B00000E00019202E3BD9A801B9010F8518893C
:1011C00029893A89ECEDF4E209952F903F904F90F0
:1011D0005F906F907F900F87188B298B3A8B00DB85
:1011E000E5E9F9E209953F922F92A801B9010F852F
:1011F000188929893A89EADA40E050E060E07FE323
:1012000067DB0028B0E009F0B1E00B2F2F903F9092
:10121000002399F03F922F920F85188929893A89E6
:1012200040E050E060E07FE3E6E5F7E109952F90CC
:101230003F900F87188B298B3A8B0F851889298946
:101240003A89CEDA4A8550E04F5F5F4FBA01660FA8
:10125000771F660F771F49E25CE6FB01E40FF51F7D
:101260004591559165917591041715072607370724
:10127000D0F03F922F920F85188929893A894DEC39
:101280005CEC6CEC7DE3EBE7FAE209952F903F9084
:101290000F87188B298B3A8B0B891C890F5F1F4F87
:1012A0000B8B1C8B33C00F85188929893A8998DAF2
:1012B0004A85642F70E0660F771F660F771F49E23B
:1012C0005CE6FB01E40FF51F459155916591759121
:1012D0000417150726073707C8F43F922F920F858A
:1012E000188929893A8940E050E060E271E4EBE72F
:1012F000FAE209952F903F900F87188B298B3A8B34
:101300000B891C89015010400B8B1C8B0D851E8591
:1013100011FF71C00D851E8513FD6DC028853985AF
:101320000AE010E00217130724F4BAE0B887B0E02F
:10133000B9870F85188929893A8952DA0D8B1E8B56
:101340002F8B388F0D891E892F89388DB02FB12BA7
:10135000B22BB32B49F14AE050E060E070E00D8918
:101360001E892F89388D74DA8D019F01303029F460
:10137000203019F4103009F40030B1F408851985D3
:1013800001501040088719874AE050E060E070E0A3
:101390000D891E892F89388D5BDA8B019C010D8B9D
:1013A0001E8B2F8B388FCECF188529850A85101775
:1013B000B0E02B0704F508840A8500197F926F922C
:1013C0005F924F923F922F92202E31D8A801B901FF
:1013D0000F85188929893A89ECEDF4E209952F9057
:1013E0003F904F905F906F907F900F87188B298B65
:1013F0003A8B08850A872885398589010B5F1F4F3D
:1014000008010B851C85001911090B871C87B22F59
:10141000B32B29F40D851E8513FD01C006C00B8575
:101420001C85015010400B871C870D851E8503709D
:101430001070B02FB12B31F00B851C85015010407E
:101440000B871C870D851E8502FF48C00D851E85F4
:1014500001FF17C00D851E8500FF03C0BDE2B883E4
:1014600002C0BBE2B8830881F101008381010F5FF4
:101470001F4F1801098D1A8D0F5F1F4F098F1A8F8B
:1014800011C00D851E8500FF0DC0F101B0E2B083D3
:1014900081010F5F1F4F1801098D1A8D0F5F1F4FBC
:1014A000098F1A8F2B853C8500E010E00217130787
:1014B000A4F4F101B0E3B08381010F5F1F4F180165
:1014C000098D1A8D0F5F1F4F098F1A8F0B851C8591
:1014D000015010400B871C87E5CF4BC00D851E8542
:1014E00003FD1BC02B853C8500E010E002171307AD
:1014F000A4F4F101B0E2B08381010F5F1F4F180126
:10150000098D1A8D0F5F1F4F098F1A8F0B851C8550
:10151000015010400B871C87E5CF0D851E8501FF0C
:1015200017C00D851E8500FF03C0BDE2B98302C050
:10153000BBE2B9830981F101008381010F5F1F4F75
:101540001801098D1A8D0F5F1F4F098F1A8F11C057
:101550000D851E8500FF0DC0F101B0E2B083810151
:101560000F5F1F4F1801098D1A8D0F5F1F4F098FD5
:101570001A8F0F85188929893A8932D90D8B1E8BCC
:101580002F8B388F0A85202F30E0220F331F220F38
:10159000331F09E21CE6F901E00FF11F4591559157
:1015A000659175910D891E892F89388D51D98B01CF
:1015B0009C01005DF101008381010F5F1F4F180145
:1015C000098D1A8D0F5F1F4F098F1A8F0885198596
:1015D000B02FB12B29F40D851E8513FD01C060C00D
:1015E000F101BEE2B08381010F5F1F4F1801098D29
:1015F0001A8D0F5F1F4F098F1A8F0A84B0E01B2EC0
:101600000885198500191109088719870A8500239B
:1016100071F10A8501500A87202F30E0220F331F15
:10162000220F331F09E21CE6F901E00FF11F45917B
:101630005591659175910D891E892F89388D08D92D
:101640008B019C014AE050E060E070E001D98D011F
:101650009F01005DF101008381010F5F1F4F1801A1
:10166000098D1A8D0F5F1F4F098F1A8FCFCF0885F5
:101670001985B02FB12BA1F0F101B0E3B083810146
:101680000F5F1F4F1801098D1A8D0F5F1F4F098FB4
:101690001A8F088519850150104008871987E7CFF0
:1016A0000D851E8505FF0EC0F101B5E4B0838101F3
:1016B0000F5F1F4F1801098D1A8D0F5F1F4F098F84
:1016C0001A8F0DC0F101B5E6B08381010F5F1F4F86
:1016D0001801098D1A8D0F5F1F4F098F1A8F2B89E3
:1016E0003C8900E010E020173107B4F40B881C8817
:1016F00000E010E0001911090B8B1C8BF101BDE219
:10170000B08381010F5F1F4F1801098D1A8D0F5F84
:101710001F4F098F1A8F0DC0F101BBE2B083810109
:101720000F5F1F4F1801098D1A8D0F5F1F4F098F13
:101730001A8F7F926F925F924F923F922F924AE060
:1017400050E00B891C89E5EBF1E209958B012F90A4
:101750003F90005DF101008381010F5F1F4F180171
:10176000098D1A8D0F5F1F4F098F1A8F3F922F928D
:101770004AE050E00B891C89E5EBF1E209958C0108
:101780002F903F904F905F906F907F90005DF101A0
:10179000008381010F5F1F4F1801098D1A8D0F5FA4
:1017A0001F4F098F1A8F0D851E8503FF1DC02B85C6
:1017B0003C8500E010E002171307B4F4F101B0E239
:1017C000B08381010F5F1F4F1801098D1A8D0F5FC4
:1017D0001F4F098F1A8F0B851C85015010400B87F6
:1017E0001C87B02FB12B51F72FC90D851E8511FF16
:1017F000BCC02B893C8900E010E0201731075CF465
:101800000B891C89015010400801088519850019B1
:101810001109088719870F85188929893A89E0EF06
:10182000F3E009950D8B1E8B2F8B388FB1E0BA87B3
:101830000A850A30F1F00A85202F30E0220F331F8D
:10184000220F331F09E21CE6F901E00FF11F459159
:101850005591659175910D891E892F89388D0417D1
:1018600015072607370708F404C00A850F5F0A87A3
:10187000DFCF0A84B0E01B2E0885198500191109F5
:10188000088719870D891E892F89388DE5E9F9E2C6
:1018900009953F922F92A801B9010F8518892989CE
:1018A0003A89E6EEF3E009952F903F900F8F18A349
:1018B00029A33AA37F926F925F924F923F922F9209
:1018C0002884E7E1F2E009952F903F904F905F90D8
:1018D0006F907F904F8D58A169A17AA13F922F926E
:1018E000EBE7FAE2099540E050E060E07FE3E6E5EF
:1018F000F7E109952F903F90E0EFF3E009950D8B0C
:101900001E8B2F8B388F08851985B02FB12B69F16D
:101910004AE050E060E070E00D891E892F89388D23
:10192000E8E2F4E009958D019F01303029F4203080
:1019300019F4103009F40030C1F44AE050E060E0DE
:1019400070E00D891E892F89388DE8E2F4E0099551
:101950008B019C010D8B1E8B2F8B388F0885198571
:101960000150104008871987CECF288539850CE0B3
:1019700010E0021713079CF03F922F922884E3E1B6
:10198000F1E009954F85588969897A89E6E5F7E19B
:1019900009952F903F900F87188B298B3A8B3F9298
:1019A0002F920F85188929893A8940E050E060E03C
:1019B00070E0EFE6F4E00995002800E009F001E0AE
:1019C0002F903F90002309F474C00F85188929894E
:1019D0003A89E0EFF3E00995303029F4203019F42A
:1019E000103009F4003009F064C02B893C8901E013
:1019F00010E0021713070CF05CC07F926F925F92A9
:101A00004F923F922F922B88E7E1F2E00995A801CF
:101A1000B9010F85188929893A89ECEDF4E2099515
:101A20002F903F904F905F906F907F903F922F92BA
:101A30004FE550E769E870E429D70028B0E009F0E5
:101A4000B1E00B2F2F903F90002339F00B891C89B8
:101A5000095010400B8B1C8B06C00B891C89085049
:101A600010400B8B1C8B7F926F925F924F923F9234
:101A70002F922B88E7E1F2E00995A801B9010F85C3
:101A8000188929893A89ECEDF4E209952F903F9065
:101A90004F905F906F907F90E0EFF3E009950D8B92
:101AA0001E8B2F8B388FB0E0BF87B88BB98BBA8B6A
:101AB00026C00F85188929893A89E0EFF3E0099556
:101AC0000D8B1E8B2F8B388F0D891E892F89388D9A
:101AD000E5E9F9E209953F922F92A801B9010F8536
:101AE000188929893A89E6EEF3E009952F903F900D
:101AF0000F87188B298B3A8BB0E0BB8BBC8BB1E086
:101B0000BA870A850A30F1F00A85202F30E0220FCB
:101B1000331F220F331F09E21CE6F901E00FF11F0A
:101B200045915591659175910D891E892F89388D43
:101B3000041715072607370708F404C00A850F5F46
:101B40000A87DFCF488559850A85202F30E0240F8A
:101B5000351F0B891C89020F131F08010B851C857B
:101B6000001911090B871C870D851E8513FD06C002
:101B700008851985B02FB12B09F406C00B851C858B
:101B8000015010400B871C870D851E850370107057
:101B9000B02FB12B31F00B851C85015010400B8705
:101BA0001C870D851E8502FF48C00D851E8501FF1F
:101BB00017C00D851E8500FF03C0BDE2BA8302C0B9
:101BC000BBE2BA830A81F101008381010F5F1F4FDD
:101BD0001801098D1A8D0F5F1F4F098F1A8F11C0C1
:101BE0000D851E8500FF0DC0F101B0E2B0838101BB
:101BF0000F5F1F4F1801098D1A8D0F5F1F4F098F3F
:101C00001A8F2B853C8500E010E002171307A4F41F
:101C1000F101B0E3B08381010F5F1F4F1801098DFF
:101C20001A8D0F5F1F4F098F1A8F0B851C8501506E
:101C300010400B871C87E5CF4BC00D851E8503FD2B
:101C40001BC02B853C8500E010E002171307A4F4AD
:101C5000F101B0E2B08381010F5F1F4F1801098DC0
:101C60001A8D0F5F1F4F098F1A8F0B851C8501502E
:101C700010400B871C87E5CF0D851E8501FF17C01F
:101C80000D851E8500FF03C0BDE2BB8302C0BBE221
:101C9000BB830B81F101008381010F5F1F4F18018E
:101CA000098D1A8D0F5F1F4F098F1A8F11C00D8577
:101CB0001E8500FF0DC0F101B0E2B08381010F5F0E
:101CC0001F4F1801098D1A8D0F5F1F4F098F1A8F33
:101CD0001A850A8501500A87112381F10A85202F70
:101CE00030E0220F331F220F331F09E21CE6F901F7
:101CF000E00FF11F45915591659175910D891E89F0
:101D00002F89388DE8E2F4E009958B019C014AE0C7
:101D100050E060E070E0E8E2F4E009958D019F0199
:101D2000005DF101008381010F5F1F4F1801098DD4
:101D30001A8D0F5F1F4F098F1A8FCACF2B893C89CD
:101D400000E010E002171307A4F4F101B0E3B08340
:101D500081010F5F1F4F1801098D1A8D0F5F1F4FF3
:101D6000098F1A8F0B891C89015010400B8B1C8B1B
:101D7000E5CF2885398508E010E0021713071CF429
:101D8000B8E0BA8702C008850A870A84B0E01B2E33
:101D90000885198500191109088719870A85002304
:101DA00029F40D851E8513FD01C00DC0F101BEE2B1
:101DB000B08381010F5F1F4F1801098D1A8D0F5FCE
:101DC0001F4F098F1A8F7F926F925F924F923F92AF
:101DD0002F922A84E7E1F2E009952F903F904F90EF
:101DE0005F906F907F903F922F924F8558896989BD
:101DF0007A89EBE7FAE209952F903F90E0EFF3E064
:101E000009950D8B1E8B2F8B388F0A85002391F13E
:101E10000A8501500A87202F30E0220F331F220F3E
:101E2000331F09E21CE6F901E00FF11F45915591BE
:101E3000659175910D891E892F89388DE8E2F4E04E
:101E400009958B019C014AE050E060E070E0E8E217
:101E5000F4E009958D019F01005DF101008381018E
:101E60000F5F1F4F1801098D1A8D0F5F1F4F098FCC
:101E70001A8FCBCF08851985B02FB12BA1F0F101B6
:101E8000B0E3B08381010F5F1F4F1801098D1A8DD8
:101E90000F5F1F4F098F1A8F088519850150104059
:101EA00008871987E7CF0D851E8503FF1DC02B8589
:101EB0003C8500E010E002171307B4F4F101B0E232
:101EC000B08381010F5F1F4F1801098D1A8D0F5FBD
:101ED0001F4F098F1A8F0B851C85015010400B87EF
:101EE0001C87B02FB12B51F7E4E2F5E009940D8582
:101EF0001E85007C1070103009F4003009F052C0CB
:101F00000D851E8504FF15C0F30101911191F801A3
:101F100001911191219131910D8B1E8B2F8B388F57
:101F2000F301019111910C5F1F4FF3010193119384
:101F300016C0F30101911191F8010191119120E076
:101F400017FD2FEF322F0D8B1E8B2F8B388FF30148
:101F5000019111910E5F1F4FF301019311934D8970
:101F60005E896F89788D00E010E020E030E0401756
:101F7000510762077307ACF40D851E8503600D875A
:101F80001E870D881E8800E010E0001911090F88D7
:101F9000188C20E030E0200931090D8B1E8B2F8B2F
:101FA000388F2CC00D851E8504FF15C0F3010191EB
:101FB0001191F80101911191219131910D8B1E8B9D
:101FC0002F8B388FF301019111910C5F1F4FF3019B
:101FD0000193119313C0F30101911191F801019143
:101FE00011910D8B1E8BB0E0BF8BB88FF301019167
:101FF00011910E5F1F4FF30101931193088519850D
:10200000103009F4003091F40D891E892F89388D24
:10201000303029F4203019F4103009F4003031F454
:10202000088519850F5F1F4F088719870D85007C6C
:10203000802F6CC0B1E0BA870A850A30F1F00A85BA
:10204000202F30E0220F331F220F331F09E21CE63E
:10205000F901E00FF11F45915591659175910D8939
:102060001E892F89388D041715072607370708F4AE
:1020700004C00A850F5F0A87DFCF53C0B1E0BA877B
:102080000A850830F1F00A85202F30E0220F331F37
:10209000220F331F01E51CE6F901E00FF11F459106
:1020A0005591659175910D891E892F89388D041779
:1020B00015072607370708F404C00A850F5F0A874B
:1020C000DFCF2FC0B1E0BA870A850C30F1F00A8566
:1020D000202F30E0220F331F220F331F09EF1BE6A2
:1020E000F901E00FF11F45915591659175910D89A9
:1020F0001E892F89388D041715072607370708F41E
:1021000004C00A850F5F0A87DFCF0BC0803009F457
:1021100091CF803C09F48ECF803809F4AFCF803462
:1021200089F20A852885398510E0021713071CF407
:1021300008850A870BC0188529850A851017B0E025
:102140002B0724F40A850887B0E0B9870B851C8526
:10215000B02FB12B69F00D851E8503701070B02F64
:10216000B12B31F00B851C85015010400B871C876B
:102170002B853C8508851985021713074CF40884C4
:1021800019840B851C85001911090B871C8703C056
:10219000B0E0BB87BC870D851E85047C18701830A5
:1021A00009F4003461F40B851C85B02FB12B31F09C
:1021B0000B851C85015010400B871C8719C00D85AD
:1021C0001E85007C1870183009F4003889F42B85BE
:1021D0003C8502E010E0021713073CF40B851C85D8
:1021E000025010400B871C8703C0B0E0BB87BC8740
:1021F0000D851E8502FF74C00D851E8501FF17C069
:102200000D851E8500FF03C0BDE2BC8302C0BBE29A
:10221000BC830C81F101008381010F5F1F4F180106
:10222000098D1A8D0F5F1F4F098F1A8F3DC00D85C5
:102230001E8500FF0EC0F101B0E2B08381010F5F87
:102240001F4F1801098D1A8D0F5F1F4F098F1A8FAD
:102250002BC00D851E85007C1870183009F40038DD
:1022600019F5F101B0E3B08381010F5F1F4F180131
:10227000098D1A8D0F5F1F4F098F1A8F0D851E85CF
:1022800005FF03C0B8E5BD8302C0B8E7BD830D817B
:10229000F101008381010F5F1F4F1801098D1A8D15
:1022A0000F5F1F4F098F1A8F0B851C85B02FB12B25
:1022B000B1F0F101B0E3B08381010F5F1F4F18014E
:1022C000098D1A8D0F5F1F4F098F1A8F0B851C8583
:1022D000015010400B871C87B02FB12B51F78CC0D9
:1022E0000B851C85B02FB12BD1F00D851E8503FD0C
:1022F00016C0F101B0E2B08381010F5F1F4F1801DA
:10230000098D1A8D0F5F1F4F098F1A8F0B851C8542
:10231000015010400B871C87B02FB12B51F70D8552
:102320001E8501FF17C00D851E8500FF03C0BDE29D
:10233000BE8302C0BBE2BE830E81F1010083810136
:102340000F5F1F4F1801098D1A8D0F5F1F4F098FE7
:102350001A8F11C00D851E8500FF0DC0F101B0E27E
:10236000B08381010F5F1F4F1801098D1A8D0F5F18
:102370001F4F098F1A8F0D851E85007C187018302D
:1023800009F4003471F4F101B0E3B08381010F5F0F
:102390001F4F1801098D1A8D0F5F1F4F098F1A8F5C
:1023A0002BC00D851E85007C1870183009F400388C
:1023B00019F5F101B0E3B08381010F5F1F4F1801E0
:1023C000098D1A8D0F5F1F4F098F1A8F0D851E857E
:1023D00005FF03C0B8E5BF8302C0B8E7BF830F8124
:1023E000F101008381010F5F1F4F1801098D1A8DC4
:1023F0000F5F1F4F098F1A8F288539850A8510E0D6
:102400000217130774F4F101B0E3B08381010F5F89
:102410001F4F1801098D1A8D0F5F1F4F098F1A8FDB
:10242000EBCF28853985088519850150104008872C
:102430001987B22FB32B09F4B2C00D85007C0F8F22
:1024400094C0088519859801220F331F220F331F6E
:1024500009E21CE6F901E00FF11F459155916591E4
:1024600075910D891E892F89388DE8E2F4E0099570
:102470008B019C014AE050E060E070E0E8E2F4E0AB
:1024800009958D019F01005D0A877BC00D851E8522
:1024900005FF27C0088519859801220F331F220FD9
:1024A000331F01E51CE6F901E00FF11F459155913D
:1024B000659175910D891E892F89388DE8E2F4E0C8
:1024C00009958B019C01A801B9014F705070607093
:1024D000707002E81CE6F801E40FF51F04910A870A
:1024E00026C0088519859801220F331F220F331F3C
:1024F00001E51CE6F901E00FF11F45915591659149
:1025000075910D891E892F89388DE8E2F4E00995CF
:102510008B019C01A801B9014F7050706070707000
:1025200001E71CE6F801E40FF51F04910A8729C0B2
:10253000088519859801220F331F220F331F09EFD9
:102540001BE6F901E00FF11F4591559165917591D9
:102550000D891E892F89388DE8E2F4E009958B01F9
:102560009C010770005D0A870CC00F8D003009F4D4
:1025700068CF003C09F465CF003809F487CF0034F8
:10258000B9F20A85F101008381010F5F1F4F180125
:10259000098D1A8D0F5F1F4F098F1A8F42CF0D853E
:1025A0001E8503FF1DC02B853C8500E010E002174F
:1025B0001307B4F4F101B0E2B08381010F5F1F4F44
:1025C0001801098D1A8D0F5F1F4F098F1A8F0B8508
:1025D0001C85015010400B871C87B02FB12B51F781
:1025E000E4E2F5E00994098D1A8DA296CDBFDEBF15
:1025F000DF91CF9108952F920FC0B0E82B2E19C014
:10260000B0EC2B2E16C0B4E92B2E13C0B4ED2B2E3C
:1026100010C0B0E82B2E0DC0B1E02B1671F3B2E064
:102620002B1671F3B3E02B1671F3B4E02B1671F394
:10263000F0CF032D0150020D202EB0917F03B16029
:10264000B0937F03202EEFE2F9E20995B0917F036A
:10265000BE7FB0937F03242CEFE2F9E20995B0919D
:102660007F03B160B0937F032F900895CF93DF93E2
:10267000CDB7DEB72297CDBFDEBF21962882398243
:102680000FB6BFB3B1FF01C0FCCFF894BFB3BF7E9C
:10269000BFBBBFB3BF7DBFBB1C2F2D2FE12FF22FC0
:1026A0003196008102BDE12FF22F008101BD40BCB7
:1026B000BFB3B460BFBBBFB3B260BFBB0FBE219698
:1026C000CDBFDEBFDF91CF9108953F932F931F932E
:1026D0000F93002D112D222D332DE3E4F0E0099509
:1026E00009F451C0E62ED52EC42EB32EA22E912E63
:1026F000802E0F911F912F913F91E3E4F0E0099517
:1027000071F16E254C195D09403853074CF541387D
:102710007FEF57079CF180E27724632E522E412EE3
:10272000302F222711270027000F111F221F331FD0
:10273000441C551C661C771C28F0481859086A0868
:102740007B0804C0480C591C6A1C7B1C0AF0016001
:102750008A9551F741505040EBE6F0E0099518C0DA
:102760000FEF102F2FE73FE76623C9F3EBE3F0E00D
:102770000995A9F3342D30E83425F1CF0027102F27
:10278000202F302FECCF0F900F900F900F90E8CFAD
:102790000895002E112E222E332E042F152F262FB2
:1027A000372FEAE4F4E0099500231CF40024039495
:1027B00001C00024089530E040E03615470520F5BB
:1027C000E32FF42FE40DF51D2081032F142F020DAC
:1027D000131D5F924F923F922F92422E180146DFB7
:1027E0002F903F904F905F9023E018E008E70A9504
:1027F000F1F71A95E1F72A95D1F7032F142F0F5F00
:102800001F4F302F412FD9CF0895B0917F03BE7F46
:10281000B0937F03EFE2F9E20995B0917F03B160D5
:10282000B0937F030895B8EEB0938203B4E1B09300
:102830008303B7E8B0937A00B0E0B0937C000895CA
:102840002F923F9281017F926F925F924F92302E32
:102850002224EEEFF4E009954F905F908201302E34
:10286000B1E02B2EEEEFF4E009956F907F9083019D
:10287000302EB2E02B2EEEEFF4E009953F902F9032
:102880000895E894E0EAF0E009950895E3EBF4E0B8
:1028900009951CF40024039401C000240895CF93EB
:1028A000DF93CDB7DEB72297CDBFDEBF21962F9243
:1028B0003F924F925F926F927F922E813F81FE01F5
:1028C0008E01085F1F4F0E5F1F4F019311938E0102
:1028D0003F932F933801488459841901E9E1F5E0C9
:1028E00009952F913F91A801F801E20FF31FB0E085
:1028F000B0838A017F906F905F904F903F902F90B0
:102900002196CDBFDEBFDF91CF910895CF93DF93A6
:10291000CDB7DEB72497CDBFDEBF21962F923F9271
:10292000B0E0B883B9832A823B8200E010E0201631
:10293000310654F4B1E0B883B0E0B98300E010E0B0
:10294000021913090A831B832A803B80EAEBF4E017
:10295000099566E070E0AB0100E010E00417150790
:1029600090F49A01240D351D8A0101501040F801A0
:10297000E40DF51D0081F90100838A01015010402A
:10298000B801AB01E9CFF201B0E2B083088119814F
:10299000B02FB12BA9F020E030E0F901E40DF51DD6
:1029A0000081003229F489010F5F1F4F9801F5CF94
:1029B000890101501040F801E40DF51DBDE2B0831E
:1029C0003F902F902396CDBFDEBFDF91CF9108952A
:1029D00000917C00007E022900937C00B0917A0077
:1029E000B064B0937A00B0917A00B6FF01C0FBCF1B
:1029F0002091780030E000917900102F0027022B01
:102A0000132B08952F9240915301509154016091DE
:102A1000550170915601B4E8B093BC0020FAB09112
:102A2000BC00B6F9B093BC00B091BC00B7FD25C0A6
:102A3000009153011091540120915501309156019C
:102A4000B02FB12BB22BB32BB9F0B42FB52BB62BC3
:102A5000B72B49F4B3E02B2EE0918003F091810372
:102A6000099501E00CC08A019B01015010402040F3
:102A70003040A801B90100C0D7CF0091BB002F9012
:102A80000895CF93DF93CDB7DEB72297CDBFDEBFDA
:102A9000219610E0133050F4E12FF0E0E30DF41D27
:102AA000B0E2B083012F0F5F102FF4CFE12FF0E0E1
:102AB000E30DF41DB0E0B083012F0150302F032F40
:102AC00010E0030D141D088319834AE0022DEDE088
:102AD000F5E00995092F202F205D08811981F80163
:102AE00020834AE0022DEDE0F5E00995202E00302C
:102AF00009F404C0032F0150302FE1CF2196CDBF40
:102B0000DEBFDF91CF910895132D411680F01F9302
:102B10004F923F922F92B0E24B2E312E6CDD2F90D0
:102B20003F904F901F91012F0F5F102FEECF089510
:102B300009E0021598F44AE0022DEDE0F5E0099570
:102B4000000F000F000F000F102F4AE0022DEDE0E4
:102B5000F5E00995092F012B102F01C0122D012F2F
:102B6000089502E00A95F1F700000000089547E19A
:102B70006627552736F0332322F4E8E5F0E009957F
:102B800060E8EBE6F0E0099508952F923F924F92AE
:102B90005F92B3EA4B2EB2E05B2EB1E03B2EB1E088
:102BA0002B2EEDE7F3E2099529E216E900E80A95F4
:102BB000F1F71A95E1F72A95D1F7B0E14B2EB1E084
:102BC0003B2EB2E02B2EA0DFB9B1B2FFB4C0BBEAFE
:102BD0003B2EB3E04B2E2090690353DFBEEA4B2E11
:102BE000B2E05B2EB1E03B2EB2E02B2EEDE7F3E23C
:102BF0000995BBEA4B2EB3E05B2EB2E03B2EB2E070
:102C00002B2EEDE7F3E20995BDE22B2EFEDDBBEAAC
:102C10003B2EB3E04B2E20906A0333DFB3ED4B2EF7
:102C2000B2E05B2EB6E03B2EB2E02B2EEDE7F3E2F6
:102C30000995BBEA4B2EB3E05B2EB7E03B2EB2E02A
:102C40002B2EEDE7F3E20995B9B1B0FD04C0B9B19F
:102C5000B1FD01C06FC0BBEA3B2EB3E04B2E20900C
:102C600069030FDFB6ED4B2EB2E05B2EB1E03B2ED9
:102C7000B2E02B2EEDE7F3E20995BBEA4B2EB3E071
:102C80005B2EB2E03B2EB2E02B2EEDE7F3E209958E
:102C9000BDE22B2EBADDBBEA3B2EB3E04B2E2090DB
:102CA0006A03EFDEB0ED4B2EB2E05B2EB6E03B2EBA
:102CB000B2E02B2EEDE7F3E20995BBEA4B2EB3E031
:102CC0005B2EB7E03B2EB2E02B2EEDE7F3E2099549
:102CD00000916A030B3330F410916A0300E001178E
:102CE00008F403C0B0E0B0936A03B9B1B0FF0FC0FD
:102CF00029E01EE105EE0A95F1F71A95E1F72A950C
:102D0000D1F7000000916A030F5F00936A03B9B125
:102D1000B1FF0FC029E01EE105EE0A95F1F71A9503
:102D2000E1F72A95D1F7000000916A030150009362
:102D30006A038ACF49CF29E216E900E80A95F1F73C
:102D40001A95E1F72A95D1F7B9B1B2FF9EC0BBEA57
:102D50003B2EB3E04B2E2090690393DEBBEA4B2E53
:102D6000B3E05B2EB2E03B2EB2E02B2EEDE7F3E2B8
:102D70000995BDE22B2E49DDBBEA3B2EB3E04B2E7D
:102D800020906A037EDEBAEC4B2EB2E05B2EB6E0FA
:102D90003B2EB2E02B2EEDE7F3E20995BBEA4B2E7A
:102DA000B3E05B2EB7E03B2EB2E02B2EEDE7F3E273
:102DB0000995B9B1B0FD04C0B9B1B1FD01C064C09D
:102DC000BBEA3B2EB3E04B2E209069035ADEBBEAF0
:102DD0004B2EB3E05B2EB2E03B2EB2E02B2EEDE7A4
:102DE000F3E20995BDE22B2E10DDBBEA3B2EB3E0EA
:102DF0004B2E20906A0345DEBDEC4B2EB2E05B2EDD
:102E0000B6E03B2EB2E02B2EEDE7F3E20995BBEAEC
:102E10004B2EB3E05B2EB7E03B2EB2E02B2EEDE75E
:102E2000F3E2099500916903083130F410916903C8
:102E300000E0011708F403C0B0E0B0936903B9B132
:102E4000B0FF0FC029E01EE105EE0A95F1F71A95D3
:102E5000E1F72A95D1F70000009169030F5F009315
:102E60006903B9B1B1FF0FC029E01EE105EE0A9573
:102E7000F1F71A95E1F72A95D1F70000009169035F
:102E800001500093690395CF5FCF409069032224DE
:102E90003324ECDB40906A03B1E02B2EB0E03B2EF4
:102EA000E5DB5F904F903F902F900895042E152EF4
:102EB000262E372EE6DC002E112E222E332E0895DC
:102EC0002F923F924F925F92B0E14B2EB1E03B2E9A
:102ED000B1E02B2E19DEB9E84B2EB1E05B2EB1E04C
:102EE0003B2EB1E02B2EEDE7F3E20995B0E14B2E3E
:102EF000B1E03B2EB2E02B2E07DE29E216E900E816
:102F00000A95F1F71A95E1F72A95D1F7B9B1B2FF11
:102F1000B4C0BBEA3B2EB3E04B2E20906703B1DD7B
:102F2000B4E94B2EB1E05B2EB1E03B2EB2E02B2E8C
:102F3000EDE7F3E20995BBEA4B2EB3E05B2EB2E07E
:102F40003B2EB2E02B2EEDE7F3E20995BDE22B2EEE
:102F50005CDCBBEA3B2EB3E04B2E20906D0391DD91
:102F6000B7E74B2EB1E05B2EB6E03B2EB2E02B2E46
:102F7000EDE7F3E20995BBEA4B2EB3E05B2EB7E039
:102F80003B2EB2E02B2EEDE7F3E20995B9B1B0FD8F
:102F900004C0B9B1B1FD01C06FC0BBEA3B2EB3E0C4
:102FA0004B2E209067036DDDB8E64B2EB1E05B2E13
:102FB000B1E03B2EB2E02B2EEDE7F3E20995BBEA40
:102FC0004B2EB3E05B2EB2E03B2EB2E02B2EEDE7B2
:102FD000F3E20995BDE22B2E18DCBBEA3B2EB3E0F1
:102FE0004B2E20906D034DDDB7E54B2EB3E05B2EED
:102FF000B6E03B2EB2E02B2EEDE7F3E20995BBEAFB
:103000004B2EB3E05B2EB7E03B2EB2E02B2EEDE76C
:10301000F3E2099500916D030C3330F410916D03C8
:1030200000E0011708F403C0B0E0B0936D03B9B13C
:10303000B0FF0FC029E01EE105EE0A95F1F71A95E1
:10304000E1F72A95D1F7000000916D030F5F00931F
:103050006D03B9B1B1FF0FC029E01EE105EE0A957D
:10306000F1F71A95E1F72A95D1F7000000916D0369
:10307000015000936D038ACF49CF29E216E900E899
:103080000A95F1F71A95E1F72A95D1F7B9B1B2FF90
:10309000B4C0BBEA3B2EB3E04B2E20906703F1DCBB
:1030A000B9E14B2EB3E05B2EB1E03B2EB2E02B2E0C
:1030B000EDE7F3E20995BBEA4B2EB3E05B2EB2E0FD
:1030C0003B2EB2E02B2EEDE7F3E20995BDE22B2E6D
:1030D0009CDBBBEA3B2EB3E04B2E20906D03D1DC92
:1030E000BCE14B2EB3E05B2EB6E03B2EB2E02B2EC4
:1030F000EDE7F3E20995BBEA4B2EB3E05B2EB7E0B8
:103100003B2EB2E02B2EEDE7F3E20995B9B1B0FD0D
:1031100004C0B9B1B1FD01C06FC0BBEA3B2EB3E042
:103120004B2E20906703ADDCB2E14B2EB3E05B2E5B
:10313000B1E03B2EB2E02B2EEDE7F3E20995BBEABE
:103140004B2EB3E05B2EB2E03B2EB2E02B2EEDE730
:10315000F3E20995BDE22B2E58DBBBEA3B2EB3E030
:103160004B2E20906D038DDCB8E34B2EB3E05B2E2D
:10317000B6E03B2EB2E02B2EEDE7F3E20995BBEA79
:103180004B2EB3E05B2EB7E03B2EB2E02B2EEDE7EB
:10319000F3E2099500916703083130F41091670359
:1031A00000E0011708F403C0B0E0B0936703B9B1C1
:1031B000B0FF0FC029E01EE105EE0A95F1F71A9560
:1031C000E1F72A95D1F70000009167030F5F0093A4
:1031D0006703B9B1B1FF0FC029E01EE105EE0A9502
:1031E000F1F71A95E1F72A95D1F7000000916703EE
:1031F0000150009367038ACF49CF40906703B2E242
:103200002B2EB0E03B2E32DA40906D03B3E22B2E32
:10321000B0E03B2E2BDA5F904F903F902F900895B7
:10322000002E112E222E332E042F152F262F372F4E
:10323000EAE4F4E0099500231CF00024039401C0A3
:10324000002408952F923F924F925F92B0E14B2E4F
:10325000B1E03B2EB1E02B2E57DCB5EE4B2EB1E0AA
:103260005B2EB1E03B2EB1E02B2EEDE7F3E20995AA
:10327000B0E14B2EB1E03B2EB2E02B2E45DCB9B1D4
:10328000B2FFB4C0BBEA3B2EB3E04B2E20906C03E0
:10329000F8DBB1EC4B2EB1E05B2EB1E03B2EB2E09F
:1032A0002B2EEDE7F3E20995BBEA4B2EB3E05B2E44
:1032B000B2E03B2EB2E02B2EEDE7F3E20995BDE242
:1032C0002B2EA3DABBEA3B2EB3E04B2E20906B03F0
:1032D000D8DBBBE04B2EB2E05B2EB6E03B2EB2E07B
:1032E0002B2EEDE7F3E20995BBEA4B2EB3E05B2E04
:1032F000B7E03B2EB2E02B2EEDE7F3E20995B9B132
:10330000B0FD04C0B9B1B1FD01C06FC0BBEA3B2E36
:10331000B3E04B2E20906C03B4DBBBE44B2EB2E049
:103320005B2EB1E03B2EB2E02B2EEDE7F3E20995E8
:10333000BBEA4B2EB3E05B2EB2E03B2EB2E02B2E6D
:10334000EDE7F3E20995BDE22B2E5FDABBEA3B2EF7
:10335000B3E04B2E20906B0394DBB8E44B2EB2E02D
:103360005B2EB6E03B2EB2E02B2EEDE7F3E20995A3
:10337000BBEA4B2EB3E05B2EB7E03B2EB2E02B2E28
:10338000EDE7F3E2099500916B030B3330F41091F4
:103390006B0300E0011708F403C0B0E0B0936B03C7
:1033A000B9B1B0FF0FC029E01EE105EE0A95F1F7B3
:1033B0001A95E1F72A95D1F7000000916B030F5F92
:1033C00000936B03B9B1B1FF0FC029E01EE105EE18
:1033D0000A95F1F71A95E1F72A95D1F700000091C7
:1033E0006B03015000936B038ACF49CF29E216E9A2
:1033F00000E80A95F1F71A95E1F72A95D1F7B9B1E6
:10340000B2FFB4C0BBEA3B2EB3E04B2E20906C035E
:1034100038DBBFE14B2EB2E05B2EB1E03B2EB2E0D9
:103420002B2EEDE7F3E20995BBEA4B2EB3E05B2EC2
:10343000B2E03B2EB2E02B2EEDE7F3E20995BDE2C0
:103440002B2EE3D9BBEA3B2EB3E04B2E20906B032F
:1034500018DBB9E14B2EB2E05B2EB6E03B2EB2E0BA
:103460002B2EEDE7F3E20995BBEA4B2EB3E05B2E82
:10347000B7E03B2EB2E02B2EEDE7F3E20995B9B1B0
:10348000B0FD04C0B9B1B1FD01C06FC0BBEA3B2EB5
:10349000B3E04B2E20906C03F4DABCE14B2EB2E08B
:1034A0005B2EB1E03B2EB2E02B2EEDE7F3E2099567
:1034B000BBEA4B2EB3E05B2EB2E03B2EB2E02B2EEC
:1034C000EDE7F3E20995BDE22B2E9FD9BBEA3B2E37
:1034D000B3E04B2E20906B03D4DABDE94B2EB1E064
:1034E0005B2EB6E03B2EB2E02B2EEDE7F3E2099522
:1034F000BBEA4B2EB3E05B2EB7E03B2EB2E02B2EA7
:10350000EDE7F3E2099500916C03083130F4109176
:103510006C0300E0011708F403C0B0E0B0936C0343
:10352000B9B1B0FF0FC029E01EE105EE0A95F1F731
:103530001A95E1F72A95D1F7000000916C030F5F0F
:1035400000936C03B9B1B1FF0FC029E01EE105EE95
:103550000A95F1F71A95E1F72A95D1F70000009145
:103560006C03015000936C038ACF49CF40906C03E9
:10357000B3E02B2EB0E03B2E79D840906B03B4E043
:103580002B2EB0E03B2E72D85F904F903F902F9043
:103590000895CF93DF93CDB7DEB72497CDBFDEBFBD
:1035A0002196288239824A825B820A811B810078B7
:1035B0001F77B7E016950795BA95E1F70E571040BB
:1035C000F301019311932A813B818901B0E00B271C
:1035D000BFE31B2700781F77022713270A831B836B
:1035E000088119812A813B812396CDBFDEBFDF91FF
:1035F000CF910895CF93DF93CDB7DEB72497CDBF9A
:10360000DEBF2196288239824A825B820A811B8131
:1036100000781F77B7E016950795BA95E1F79801FE
:10362000260D371D390100E010E0201731072CF47A
:1036300000E010E020E030E033C00FEF10E00615AE
:103640001705BCF440E050E060E070E081019201B9
:103650001DD9002800E009F001E0002329F00FEF58
:103660001FEF2FE73FEF1CC00FEF1FEF2FE73FE7E4
:1036700017C007E0B02F9301BB2321F0220F331FA7
:10368000BA95E1F70A811B812027312720783F77FF
:10369000202731272A833B83088119812A813B8196
:1036A0002396CDBFDEBFDF91CF9108950091B50382
:1036B000013009F037C000916E0310916F0320169E
:1036C0003106B0E04B065B0660F000917C03109180
:1036D0007D0320E0322F021513052405350508F07F
:1036E00006C0B9B1B3FD03C0B0E0B093AA03009126
:1036F0006E0310916F0320E0322F0215130524058D
:10370000350580F400917C0310917D03201631066D
:10371000B0E04B065B0630F4B9B1B3FD03C0B1E0D5
:10372000B093AA0308952F923F924F925F92B0E117
:103730004B2EB1E03B2EB1E02B2EE6D9BBE34B2E56
:10374000B1E05B2EB1E03B2EB1E02B2ED6D7B0E13D
:103750004B2EB1E03B2EB2E02B2ED6D929E216E952
:1037600000E80A95F1F71A95E1F72A95D1F7B9B172
:10377000B2FFA6C0BBEA3B2EB3E04B2E20906603FF
:1037800080D9B7E44B2EB1E05B2EB1E03B2EB2E026
:103790002B2EB3D7BBEA4B2EB3E05B2EB2E03B2E11
:1037A000B2E02B2EAAD7BDE22B2E2FD8BBEA3B2EA0
:1037B000B3E04B2E2090680364D9B5E34B2EB1E003
:1037C0005B2EB6E03B2EB2E02B2E97D7BBEA4B2EFA
:1037D000B3E05B2EB7E03B2EB2E02B2E8ED7B9B113
:1037E000B0FD04C0B9B1B1FD01C069C0BBEA3B2E58
:1037F000B3E04B2E2090660344D9B8E34B2EB1E0E2
:103800005B2EB1E03B2EB2E02B2E77D7BBEA4B2EDE
:10381000B3E05B2EB2E03B2EB2E02B2E6ED7BDE2C2
:103820002B2EE5E0F4E10995BBEA3B2EB3E04B2EED
:103830002090680326D9B0E54B2EB1E05B2EB6E0B0
:103840003B2EB2E02B2E59D7BBEA4B2EB3E05B2EBA
:10385000B7E03B2EB2E02B2E50D7009168030B331C
:1038600030F41091680300E0011708F403C0B0E0E1
:10387000B0936803B9B1B0FF0FC029E01EE105EEB7
:103880000A95F1F71A95E1F72A95D1F70000009112
:1038900068030F5F00936803B9B1B1FF0FC029E05F
:1038A0001EE105EE0A95F1F71A95E1F72A95D1F791
:1038B00000000091680301500093680390CF57CF38
:1038C00029E216E900E80A95F1F71A95E1F72A9539
:1038D000D1F7B9B1B2FFA8C0BBEA3B2EB3E04B2E83
:1038E00020906603CED8BAE44B2EB1E05B2EB1E057
:1038F0003B2EB2E02B2E01D7BBEA4B2EB3E05B2E62
:10390000B2E03B2EB2E02B2EF8D6BDE22B2EE5E046
:10391000F4E10995BBEA3B2EB3E04B2E20906803FF
:10392000B0D8BDE44B2EB1E05B2EB6E03B2EB2E04A
:103930002B2EE3D6BBEA4B2EB3E05B2EB7E03B2E3B
:10394000B2E02B2EDAD6B9B1B0FD04C0B9B1B1FDE9
:1039500001C069C0BBEA3B2EB3E04B2E209066034A
:1039600090D8B2E34B2EB1E05B2EB1E03B2EB2E03B
:103970002B2EC3D6BBEA4B2EB3E05B2EB2E03B2E20
:10398000B2E02B2EBAD6BDE22B2EE5E0F4E109958C
:10399000BBEA3B2EB3E04B2E2090680372D8B6E012
:1039A0004B2EB1E05B2EB6E03B2EB2E02B2EA5D61F
:1039B000BBEA4B2EB3E05B2EB7E03B2EB2E02B2EE2
:1039C0009CD600916603083130F41091660300E044
:1039D000011708F403C0B0E0B0936603B9B1B0FFBB
:1039E0000FC029E01EE105EE0A95F1F71A95E1F7FF
:1039F0002A95D1F70000009166030F5F00936603DC
:103A0000B9B1B1FF0FC029E01EE105EE0A95F1F74B
:103A10001A95E1F72A95D1F700000091660301504D
:103A20000093660390CF55CF40906603B0E22B2EF3
:103A3000B0E03B2EE6E3F3E1099540906803B1E284
:103A40002B2EB0E03B2EE6E3F3E109955F904F901B
:103A50003F902F9008952F923F924F925F92B0E146
:103A60004B2EB1E03B2EB1E02B2E4ED8B7EF4B2EB4
:103A7000B1E05B2EB1E03B2EB1E02B2E3ED629E229
:103A800016E900E80A95F1F71A95E1F72A95D1F7BA
:103A9000B0E14B2EB1E03B2EB2E02B2E35D8B9B1C0
:103AA000B2FFB0C0BBEA3B2EB3E04B2E20906503C3
:103AB000E1E4F5E10995B4EF4B2EB1E05B2EB1E006
:103AC0003B2EB2E02B2E19D6BBEA4B2EB3E05B2E79
:103AD000B2E03B2EB2E02B2E10D6BDE22B2EE5E05D
:103AE000F4E10995BBEA3B2EB3E04B2E2090640332
:103AF000E1E4F5E10995B2E04B2EB2E05B2EB6E0D1
:103B00003B2EB2E02B2EF9D5BBEA4B2EB3E05B2E59
:103B1000B7E03B2EB2E02B2EF0D5B9B1B0FD04C01A
:103B2000B9B1B1FD01C06DC0BBEA3B2EB3E04B2E75
:103B300020906503E1E4F5E10995B8E04B2EB2E091
:103B40005B2EB1E03B2EB2E02B2ED7D5BBEA4B2E3D
:103B5000B3E05B2EB2E03B2EB2E02B2ECED5BDE221
:103B60002B2EE5E0F4E10995BBEA3B2EB3E04B2EAA
:103B700020906403E1E4F5E10995B5E04B2EB2E055
:103B80005B2EB6E03B2EB2E02B2EB7D5BBEA4B2E18
:103B9000B3E05B2EB7E03B2EB2E02B2EAED500910A
:103BA00064030B3330F41091640300E0011708F450
:103BB00003C0B0E0B0936403B9B1B0FF0FC029E017
:103BC0001EE105EE0A95F1F71A95E1F72A95D1F76E
:103BD0000000009164030F5F00936403B9B1B1FF6B
:103BE0000FC029E01EE105EE0A95F1F71A95E1F7FD
:103BF0002A95D1F7000000916403015000936403FB
:103C00008CCF4DCF29E216E900E80A95F1F71A9515
:103C1000E1F72A95D1F7B9B1B2FFB0C0BBEA3B2EAC
:103C2000B3E04B2E20906503E1E4F5E10995BFED8B
:103C30004B2EB1E05B2EB1E03B2EB2E02B2E5DD5DA
:103C4000BBEA4B2EB3E05B2EB2E03B2EB2E02B2E54
:103C500054D5BDE22B2EE5E0F4E10995BBEA3B2EFD
:103C6000B3E04B2E20906403E1E4F5E10995BCED4F
:103C70004B2EB1E05B2EB6E03B2EB2E02B2E3DD5B5
:103C8000BBEA4B2EB3E05B2EB7E03B2EB2E02B2E0F
:103C900034D5B9B1B0FD04C0B9B1B1FD01C06DC03A
:103CA000BBEA3B2EB3E04B2E20906503E1E4F5E147
:103CB0000995B2EE4B2EB1E05B2EB1E03B2EB2E0A7
:103CC0002B2E1BD5BBEA4B2EB3E05B2EB2E03B2E76
:103CD000B2E02B2E12D5BDE22B2EE5E0F4E10995E2
:103CE000BBEA3B2EB3E04B2E20906403E1E4F5E108
:103CF0000995B1EF4B2EB1E05B2EB6E03B2EB2E062
:103D00002B2EFBD4BBEA4B2EB3E05B2EB7E03B2E51
:103D1000B2E02B2EF2D400916503083130F41091FB
:103D2000650300E0011708F403C0B0E0B093650339
:103D3000B9B1B0FF0FC029E01EE105EE0A95F1F719
:103D40001A95E1F72A95D1F70000009165030F5FFE
:103D500000936503B9B1B1FF0FC029E01EE105EE84
:103D60000A95F1F71A95E1F72A95D1F7000000912D
:103D700065030150009365038CCF4DCF40906503E0
:103D8000B8E12B2EB0E03B2EE6E3F3E1099540903D
:103D90006403B9E12B2EB0E03B2EE6E3F3E1099595
:103DA0005F904F903F902F900895E3EBF4E00995DA
:103DB00019F40024039401C0002408952F923F9227
:103DC0004F925F92B0E14B2EB1E03B2EB1E02B2E33
:103DD000E4E8F5E10995BDE14B2EB1E05B2EB1E0E1
:103DE0003B2EB1E02B2E89D4B0E14B2EB1E03B2E1F
:103DF000B2E02B2EE4E8F5E1099529E216E900E8A6
:103E00000A95F1F71A95E1F72A95D1F7B9B1B2FF02
:103E1000B0C0BBEA3B2EB3E04B2E20907A03E1E426
:103E2000F5E10995BEE54B2EB1E05B2EB1E03B2EEE
:103E3000B2E02B2E62D4BBEA4B2EB3E05B2EB2E095
:103E40003B2EB2E02B2E59D4BDE22B2EE5E0F4E15F
:103E50000995BBEA3B2EB3E04B2E20907903E1E4B9
:103E6000F5E10995B3E84B2EB1E05B2EB6E03B2EB1
:103E7000B2E02B2E42D4BBEA4B2EB3E05B2EB7E070
:103E80003B2EB2E02B2E39D4B9B1B0FD04C0B9B18C
:103E9000B1FD01C06DC0BBEA3B2EB3E04B2E2090BC
:103EA0007A03E1E4F5E10995B6E84B2EB1E05B2E2B
:103EB000B1E03B2EB2E02B2E20D4BBEA4B2EB3E078
:103EC0005B2EB2E03B2EB2E02B2E17D4BDE22B2EA0
:103ED000E5E0F4E10995BBEA3B2EB3E04B2E2090E0
:103EE0007903E1E4F5E10995B0E84B2EB1E05B2EF2
:103EF000B6E03B2EB2E02B2E00D4BBEA4B2EB3E053
:103F00005B2EB7E03B2EB2E02B2EF7D30091790366
:103F10000B3330F41091790300E0011708F403C06B
:103F2000B0E0B0937903B9B1B0FF0FC029E01EE152
:103F300005EE0A95F1F71A95E1F72A95D1F70000F9
:103F4000009179030F5F00937903B9B1B1FF0FC0FE
:103F500029E01EE105EE0A95F1F71A95E1F72A9599
:103F6000D1F70000009179030150009379038CCFC1
:103F70004DCF29E216E900E80A95F1F71A95E1F725
:103F80002A95D1F7B9B1B2FFB0C0BBEA3B2EB3E07E
:103F90004B2E20907A03E1E4F5E10995BAE74B2E28
:103FA000B1E05B2EB1E03B2EB2E02B2EA6D3BBEAF4
:103FB0004B2EB3E05B2EB2E03B2EB2E02B2E9DD316
:103FC000BDE22B2EE5E0F4E10995BBEA3B2EB3E020
:103FD0004B2E20907903E1E4F5E10995BDE74B2EE6
:103FE000B1E05B2EB6E03B2EB2E02B2E86D3BBEACF
:103FF0004B2EB3E05B2EB7E03B2EB2E02B2E7DD3F1
:10400000B9B1B0FD04C0B9B1B1FD01C06DC0BBEA2A
:104010003B2EB3E04B2E20907A03E1E4F5E10995C5
:10402000B7E94B2EB1E05B2EB1E03B2EB2E02B2E78
:1040300064D3BBEA4B2EB3E05B2EB2E03B2EB2E082
:104040002B2E5BD3BDE22B2EE5E0F4E10995BBEA14
:104050003B2EB3E04B2E20907903E1E4F5E1099586
:10406000BAE94B2EB1E05B2EB6E03B2EB2E02B2E30
:1040700044D3BBEA4B2EB3E05B2EB7E03B2EB2E05D
:104080002B2E3BD300917A03073130F410917A0341
:1040900000E0011708F403C0B0E0B0937A03B9B1AF
:1040A000B0FF0FC029E01EE105EE0A95F1F71A9561
:1040B000E1F72A95D1F7000000917A030F5F009392
:1040C0007A03B9B1B1FF0FC029E01EE105EE0A95F0
:1040D000F1F71A95E1F72A95D1F7000000917A03DC
:1040E000015000937A038CCF4DCF40907903B5E215
:1040F0002B2EB0E03B2EE6E3F3E1099540907A03E6
:10410000B4E22B2EB0E03B2EE6E3F3E109955F909D
:104110004F903F902F9008952F923F924F925F9231
:10412000B0E04B2EB3E05B2EB1E03B2EB1E02B2E86
:10413000E4D229E216E900E80A95F1F71A95E1F7C9
:104140002A95D1F7B0E14B2EB1E03B2EB2E02B2EF9
:10415000E4E8F5E10995B9B1B2FF5FC0BBEA4B2EC7
:10416000B3E05B2E20907C0330907D03E6E8F4E121
:104170000995BBEA4B2EB3E05B2EB1E03B2EB2E0DB
:104180002B2EBBD2B9B1B0FD04C0B9B1B1FD01C095
:1041900043C0BBEA4B2EB3E05B2E20907C033090F3
:1041A0007D03E6E8F4E10995BBEA4B2EB3E05B2E14
:1041B000B1E03B2EB2E02B2EA0D2B9B1B0FF14C0BB
:1041C00029E01EE105EE0A95F1F71A95E1F72A9527
:1041D000D1F7000000917C0310917D030F5F1F4F0A
:1041E00000937C0310937D03B9B1B1FF14C029E0A3
:1041F0001EE105EE0A95F1F71A95E1F72A95D1F738
:10420000000000917C0310917D0301501040009349
:104210007C0310937D03B6CF9ECF40907C03B2E128
:104220002B2EB0E03B2EE6E3F3E109955F904F9033
:104230003F902F900895E3E1F4E10995E8EEF4E171
:10424000099508952F923F924F925F92B2EE4B2EB6
:10425000B2E05B2EB1E03B2EB1E02B2E4ED229E234
:1042600016E900E80A95F1F71A95E1F72A95D1F7D2
:10427000B0E14B2EB1E03B2EB2E02B2EE4E8F5E1AD
:104280000995B9B1B2FF60C0B3EF4B2EB2E05B2E1F
:10429000B1E03B2EB1E02B2E30D200917E030030F6
:1042A00051F4B9ED4B2EB2E05B2EB1E03B2EB2E003
:1042B0002B2E23D209C0B9EB4B2EB2E05B2EB1E01E
:1042C0003B2EB2E02B2E19D2B9B1B0FD04C0B9B16A
:1042D000B1FD01C038C000917E03003051F4B1EC53
:1042E0004B2EB2E05B2EB1E03B2EB2E02B2E05D27E
:1042F00009C0B1EB4B2EB2E05B2EB1E03B2EB2E039
:104300002B2EFBD1B9B1B0FF0DC029E01EE105EEA7
:104310000A95F1F71A95E1F72A95D1F70000B1E077
:10432000B0937E03B9B1B1FF0DC029E01EE105EEE7
:104330000A95F1F71A95E1F72A95D1F70000B0E058
:10434000B0937E03C1CF9DCF40907E03B1E12B2E71
:10435000B0E03B2EE6E3F3E10995B1E02B2E7FD7E9
:104360005F904F903F902F900895C801BA0197FB3E
:10437000092E07260AD077FD04D00CD006D00020E5
:104380001AF4709561957F4F0895F6F79095819591
:104390009F4F0895AA1BBB1B51E107C0AA1FBB1F5B
:1043A000A617B70710F0A61BB70B881F991F5A95C1
:1043B000A9F780959095BC01CD01089508952F929D
:1043C0003F924F925F92BFE14B2EB3E05B2EB1E084
:1043D0003B2EB1E02B2E91D129E216E900E80A9597
:1043E000F1F71A95E1F72A95D1F7B0E14B2EB1E03C
:1043F0003B2EB2E02B2EE4E8F5E10995B9B1B2FF0E
:104400005DC00091B503013049F4BFE24B2EB3E02B
:104410005B2EB1E03B2EB2E02B2E6FD10091B503A5
:10442000003049F4BBE54B2EB3E05B2EB1E03B2EF0
:10443000B2E02B2E62D1B9B1B0FD04C0B9B1B1FD6B
:1044400001C03BC00091B503013049F4B1E74B2EE8
:10445000B3E05B2EB1E03B2EB2E02B2E4ED10091AB
:10446000B503003049F4B5E84B2EB2E05B2EB1E065
:104470003B2EB2E02B2E41D1B9B1B0FF0DC029E0E7
:104480001EE105EE0A95F1F71A95E1F72A95D1F7A5
:104490000000B1E0B093B503B9B1B1FF0DC029E0A0
:1044A0001EE105EE0A95F1F71A95E1F72A95D1F785
:1044B0000000B0E0B093B503BECFA0CFB0E14B2E6B
:1044C000B1E03B2EB1E02B2EE4E8F5E109954090F8
:1044D000B503B5E12B2EB0E03B2EE6E3F3E1099501
:1044E0005F904F903F902F9008952F922F92E6E784
:1044F000F4E00995B0ED2B2EEFEDF1E009952F904A
:10450000EFEDF1E00995E6E7F4E00995B1ED2B2E2A
:10451000EFEDF1E009952224E2E0F5E10995009341
:10452000A003EBEDF1E009950091A0032F90089511
:104530001AE303E20A95F1F71A95E1F7000000008B
:1045400008952F923F924F925F92BEE84B2EB2E0B9
:104550005B2EB1E03B2EB1E02B2ECFD029E216E945
:1045600000E80A95F1F71A95E1F72A95D1F7B0E13D
:104570004B2EB1E03B2EB2E02B2EE4E8F5E109959D
:10458000B9B1B2FF5FC0BBEA4B2EB3E05B2E209007
:104590006E0330906F03E6E8F4E10995BBEA4B2E19
:1045A000B3E05B2EB1E03B2EB2E02B2EA6D0B9B12A
:1045B000B0FD04C0B9B1B1FD01C043C0BBEA4B2E90
:1045C000B3E05B2E20906E0330906F03E6E8F4E1D9
:1045D0000995BBEA4B2EB3E05B2EB1E03B2EB2E077
:1045E0002B2E8BD0B9B1B0FF14C029E01EE105EE2F
:1045F0000A95F1F71A95E1F72A95D1F70000009195
:104600006E0310916F030F5F1F4F00936E031093A3
:104610006F03B9B1B1FF14C029E01EE105EE0A95A0
:10462000F1F71A95E1F72A95D1F7000000916E0392
:1046300010916F030150104000936E0310936F03AD
:10464000B6CF9ECFB0E14B2EB1E03B2EB1E02B2E8A
:10465000E4E8F5E1099540906E03B3E12B2EB0E05C
:104660003B2EE6E3F3E109955F904F903F902F904A
:104670000895E3E4F0E00995A1F1E62ED52EC42ECD
:10468000B32EA22E912E802E002D112D222D332DF2
:10469000E3E4F0E0099529F16E254C0D5D1D4038ED
:1046A000530704F541387FEF57070CF18827992706
:1046B000AA27BB2770E2B695A7959795879537955A
:1046C00027951795079520F4880D991DAA1DBB1DE8
:1046D0007A9589F7032F3A2F292F182FEBE6F0E070
:1046E00009950AC00FEF102F2FE73FE7FACF0027F9
:1046F000102F202F302FF5CF08952F920FC0B0E844
:104700002B2E19C0B0EC2B2E16C0B4E92B2E13C0E3
:10471000B4ED2B2E10C0B0E82B2E0DC0B1E02B163F
:1047200071F3B2E02B1671F3B3E02B1671F3B4E022
:104730002B1671F3F0CF032D0150020D202E202EE9
:104740008ED5B0917F03BE7FB0937F0310E0E12F41
:10475000F0E0E40DF51D0081002389F0E12FF0E089
:10476000E40DF51D00811F932F92202EE5E0F4E16A
:1047700009952F901F91012F0F5F102FE8CFB09157
:104780007F03B160B0937F032F9008952F923F92E3
:104790004F925F92B0E14B2EB1E03B2EB1E02B2E59
:1047A000E4E8F5E10995B9E04B2EB1E05B2EB1E00C
:1047B0003B2EB1E02B2EA1DF29E216E900E80A9595
:1047C000F1F71A95E1F72A95D1F7B9B1B2FFEAC02E
:1047D000BBEA3B2EB3E04B2E20902202E1E4F5E150
:1047E0000995B3E04B2EB1E05B2EB1E03B2EB2E079
:1047F0002B2E83DFBBEA4B2EB3E05B2EB2E03B2EC9
:10480000B2E02B2E7ADFBDE22B2EE5E0F4E1099534
:10481000BBEA3B2EB3E04B2E20900E02E1E4F5E123
:104820000995B0E04B2EB1E05B2EB6E03B2EB2E036
:104830002B2E63DFBBEA4B2EB3E05B2EB7E03B2EA3
:10484000B2E02B2E5ADFBDE22B2EE5E0F4E1099514
:10485000BBEA3B2EB3E04B2E20901802E1E4F5E1D9
:104860000995BCE24B2EB1E05B2EBCE03B2EB2E0E2
:104870002B2E43DFBBEA4B2EB3E05B2EBDE03B2E7D
:10488000B2E02B2E3ADFB9B1B0FD04C0B9B1B1FD31
:1048900001C087C0BBEA3B2EB3E04B2E2090220222
:1048A000E1E4F5E10995BFE24B2EB1E05B2EB1E00A
:1048B0003B2EB2E02B2E21DFBBEA4B2EB3E05B2E6A
:1048C000B2E03B2EB2E02B2E18DFBDE22B2EE5E04E
:1048D000F4E10995BBEA3B2EB3E04B2E20900E028B
:1048E000E1E4F5E10995B9E24B2EB1E05B2EB6E0CB
:1048F0003B2EB2E02B2E01DFBBEA4B2EB3E05B2E4A
:10490000B7E03B2EB2E02B2EF8DEBDE22B2EE5E029
:10491000F4E10995BBEA3B2EB3E04B2E2090180240
:10492000E1E4F5E10995BAE14B2EB1E05B2EBCE084
:104930003B2EB2E02B2EE1DEBBEA4B2EB3E05B2E2A
:10494000BDE03B2EB2E02B2ED8DE009122020731D3
:1049500018F0B0E0B0932202B9B1B0FF0FC029E067
:104960001EE105EE0A95F1F71A95E1F72A95D1F7C0
:104970000000009122020F5F00932202B9B1B1FF43
:104980000FC029E01EE105EE0A95F1F71A95E1F74F
:104990002A95D1F7000000912202015000932202D3
:1049A00072CF13CF5F904F903F902F90089505E8FE
:1049B0000A95F1F700000895042E152E262E372EA5
:1049C000E5E6F3E10995002E112E222E332E0895EF
:1049D0002F923F924F925F92B2E64B2EB2E05B2E47
:1049E000B1E03B2EB1E02B2E88DE29E216E900E88B
:1049F0000A95F1F71A95E1F72A95D1F7B0E14B2E18
:104A0000B1E03B2EB2E02B2EE4E8F5E109950091F0
:104A10007B03003051F4BDE74B2EB2E05B2EB1E0DA
:104A20003B2EB2E02B2E69DE09C0B4E74B2EB2E07C
:104A30005B2EB1E03B2EB2E02B2E5FDEB9B1B2FFB0
:104A40002CC000917B03003051F4B0E44B2EB2E057
:104A50005B2EB1E03B2EB2E02B2E4FDE09C0B7E358
:104A60004B2EB2E05B2EB1E03B2EB2E02B2E45DEAA
:104A7000B9B1B0FD04C0B9B1B1FD01C00DC0B9B14B
:104A8000B0FF03C0B1E0B0937B03B9B1B1FF03C085
:104A9000B0E0B0937B03ECCFD1CF40907B03B6E086
:104AA0002B2EB0E03B2EE6E3F3E10995B1E02B2E8F
:104AB000D6D35F904F903F902F9008952F923F92C2
:104AC0004F925F926F927F92BFEA4B2EB1E05B2EC6
:104AD000B1E03B2EB1E02B2E10DE29E216E900E812
:104AE0000A95F1F71A95E1F72A95D1F7B0E14B2E27
:104AF000B1E03B2EB2E02B2EE4E8F5E10995B9B127
:104B0000B2FFCBC000913B0310913C0320913D03C9
:104B100030913E033F932F931F930F93BCE6BF93B7
:104B2000B6EABF93B3E0BF93BBEABF93EFE4F4E10F
:104B30000995ADB7BEB71896ADBFBEBFBBEA4B2E49
:104B4000B3E05B2EB1E03B2EB2E02B2ED6DDB4EC11
:104B50004B2EB1E05B2EB5E03B2EB2E02B2ECDDD2F
:104B6000B9B1B0FD04C0B9B1B1FD01C095C00091AB
:104B70003B0310913C0320913D0330913E033F9352
:104B80002F931F930F93BCE6BF93B0EABF93B3E09C
:104B9000BF93BBEABF93EFE4F4E10995ADB7BEB7AD
:104BA0001896ADBFBEBFBBEA4B2EB3E05B2EB1E0A3
:104BB0003B2EB2E02B2EA1DDB7ED4B2EB1E05B2EEC
:104BC000B5E03B2EB2E02B2E98DD40E050E062E8ED
:104BD00072E400913B0310913C0320913D0330911E
:104BE0003E03E9ECF3E10995002800E009F001E05B
:104BF000002349F0B0E0B0933B03B0933C03B09383
:104C00003D03B0933E03B9B1B0FF21C029E01EE1DE
:104C100005EE0A95F1F71A95E1F72A95D1F700000C
:104C200000913B0310913C0320913D0330913E03E2
:104C30004DEC5CEC6CEC7DE3E6E5F7E10995009367
:104C40003B0310933C0320933D0330933E03B9B1E3
:104C5000B1FF21C029E01EE105EE0A95F1F71A9592
:104C6000E1F72A95D1F700004DEC5CEC6CEC7DE3AC
:104C700000913B0310913C0320913D0330913E0392
:104C8000E6EEF3E0099500933B0310933C03209379
:104C90003D0330933E0364CF32CF29E216E900E8AA
:104CA0000A95F1F71A95E1F72A95D1F7B4E06B2E42
:104CB000B0E07B2EBBE34B2EB3E05B2EB7E02B2E98
:104CC000B0E03B2EEBEDF3E10995B1E02B2EC7D21E
:104CD0007F906F905F904F903F902F9008952F920C
:104CE0003F924F925F92B0E14B2EB1E03B2EB1E08C
:104CF0002B2EE4E8F5E10995B6EC4B2EB1E05B2EE6
:104D0000B1E03B2EB1E02B2EF8DC29E216E900E8F9
:104D10000A95F1F71A95E1F72A95D1F7B9B1B2FFE3
:104D2000EBC0BBEA3B2EB3E04B2E20902202E1E425
:104D3000F5E10995B3EA4B2EB1E05B2EB1E03B2ED5
:104D4000B2E02B2EDADCBBEA4B2EB3E05B2EB2E0F6
:104D50003B2EB2E02B2ED1DCBDE22B2EE5E0F4E1C0
:104D60000995BBEA3B2EB3E04B2E20900E02E1E406
:104D7000F5E10995B0EA4B2EB1E05B2EB6E03B2E93
:104D8000B2E02B2EBADCBBEA4B2EB3E05B2EB7E0D1
:104D90003B2EB2E02B2EB1DCBDE22B2EE5E0F4E1A0
:104DA0000995BBEA3B2EB3E04B2E20901802E1E4BC
:104DB000F5E10995B6EA4B2EB1E05B2EBCE03B2E47
:104DC000B2E02B2E9ADCBBEA4B2EB3E05B2EBDE0AB
:104DD0003B2EB2E02B2E91DCB9B1B0FD04C0B9B1CD
:104DE000B1FD01C088C0BBEA3B2EB3E04B2E209042
:104DF0002202E1E4F5E10995BCEA4B2EB1E05B2E1D
:104E0000B1E03B2EB2E02B2E78DCBBEA4B2EB3E0B8
:104E10005B2EB2E03B2EB2E02B2E6FDCBDE22B2EE0
:104E2000E5E0F4E10995BBEA3B2EB3E04B2E209080
:104E30000E02E1E4F5E10995B9EA4B2EB1E05B2EF3
:104E4000B6E03B2EB2E02B2E58DCBBEA4B2EB3E093
:104E50005B2EB7E03B2EB2E02B2E4FDCBDE22B2EBB
:104E6000E5E0F4E10995BBEA3B2EB3E04B2E209040
:104E70001802E1E4F5E10995B9ED4B2EB1E05B2EA6
:104E8000BCE03B2EB2E02B2E38DCBBEA4B2EB3E06D
:104E90005B2EBDE03B2EB2E02B2E2FDC10910E02DC
:104EA0000BE3011718F4B0E0B0930E02B9B1B0FFF4
:104EB0000FC029E01EE105EE0A95F1F71A95E1F71A
:104EC0002A95D1F7000000910E020F5F00930E02A9
:104ED000B9B1B1FF0FC029E01EE105EE0A95F1F767
:104EE0001A95E1F72A95D1F7000000910E020150C2
:104EF00000930E0271CF12CF5F904F903F902F9092
:104F00000895CF93DF93CDB7DEB72297CDBFDEBF35
:104F100021962F923F924F925F926F927F92B0E1D3
:104F20004B2EB1E03B2EB1E02B2EE4E8F5E10995E4
:104F3000B3E24B2EB2E05B2EB1E03B2EB1E02B2E64
:104F4000DCDB29E216E900E80A95F1F71A95E1F7AA
:104F50002A95D1F7B9B1B2FF0AC1BBEA3B2EB3E043
:104F60004B2E20902202E1E4F5E10995BFE04B2EA3
:104F7000B2E05B2EB1E03B2EB2E02B2EBEDBBBEAF3
:104F80004B2EB3E05B2EB2E03B2EB2E02B2EB5DB16
:104F9000BDE22B2EE5E0F4E10995BBEA3B2EB3E040
:104FA0004B2E20900E02E1E4F5E10995B2E14B2E83
:104FB000B2E05B2EB6E03B2EB2E02B2E9EDBBBEACE
:104FC0004B2EB3E05B2EB7E03B2EB2E02B2E95DBF1
:104FD000BDE22B2EE5E0F4E10995BBEA3B2EB3E000
:104FE0004B2E20901802E1E4F5E10995B5E14B2E36
:104FF000B2E05B2EBCE03B2EB2E02B2E7EDBBBEAA8
:105000004B2EB3E05B2EBDE03B2EB2E02B2E75DBCA
:10501000B9B1B0FD04C0B9B1B1FD01C0A7C0BBEAD0
:105020003B2EB3E04B2E20902202E1E4F5E10995FE
:10503000B4E34B2EB2E05B2EB1E03B2EB2E02B2E60
:105040005CDBBBEA4B2EB3E05B2EB2E03B2EB2E062
:105050002B2E53DBBDE22B2EE5E0F4E10995BBEAF4
:105060003B2EB3E04B2E20900E02E1E4F5E10995D2
:10507000BFE54B2EB2E05B2EB6E03B2EB2E02B2E0E
:105080003CDBBBEA4B2EB3E05B2EB7E03B2EB2E03D
:105090002B2E33DBBDE22B2EE5E0F4E10995BBEAD4
:1050A0003B2EB3E04B2E20901802E1E4F5E1099588
:1050B000BCE54B2EB2E05B2EBCE03B2EB2E02B2ECB
:1050C0001CDBBBEA4B2EB3E05B2EBDE03B2EB2E017
:1050D0002B2E13DB109118020BE3011718F4B0E02C
:1050E000B0931802B9B1B0FF0FC029E01EE105EE80
:1050F0000A95F1F71A95E1F72A95D1F7000000918A
:1051000018020F5F00931802B9B1B1FF0FC029E078
:105110001EE105EE0A95F1F71A95E1F72A95D1F708
:105120000000009118020150009318022090220202
:10513000E8E9F5E10995098320900E02E8E9F5E137
:105140000995088320901802E8E9F5E1099529817D
:105150001881622EB0E07B2E412EB0E05B2E202E17
:10516000B0E03B2EE0E2F4E1099552CFF3CE7F9020
:105170006F905F904F903F902F902196CDBFDEBFF4
:10518000DF91CF9108952F923F924F925F92BCB3DF
:10519000B160BCBBB9B1B2FD37C0B1E02B2E5FD05E
:1051A000BEE44B2EB2E05B2EB1E03B2EB1E02B2EE5
:1051B000A4DA29E216E900E80A95F1F71A95E1F771
:1051C0002A95D1F7B9B1B2FF1EC0E5ECF5E109951A
:1051D000E2E2F9E10995EBE2FDE10995E3E9FBE1A2
:1051E0000995E0E6F7E10995EEEDFEE10995CEDAE5
:1051F00076DD87DEEDDB62DC25D8ECE8F0E20995B0
:10520000A0D9DDD8DFCF0FC0B0918100BE7FB093B1
:105210008100B0918100BD7FB0938100B091810089
:10522000BB7FB09381005F904F903F902F90089587
:1052300000913703003091F4B8B1B460B8B929E2F5
:1052400016E900E80A95F1F71A95E1F72A95D1F7E2
:10525000B8B1BB7FB8B9B1E0B0933703089527FA6E
:10526000B0912500B5F9B093250026FAB09125003C
:10527000B4F9B093250025FAB0912500B3F9B093A5
:10528000250024FAB0912500B2F9B0932500B09121
:105290007F0300902500E894B0FF689400F8009226
:1052A0002500B0912500B260B0932500E1EBF5E157
:1052B0000995B0912500BD7FB093250023FAB091E8
:1052C0002500B5F9B093250022FAB0912500B4F974
:1052D000B093250021FAB0912500B3F9B0932500D1
:1052E00020FAB0912500B2F9B0932500B0917F0368
:1052F00000902500E894B0FF689400F80092250023
:10530000B0912500B260B0932500E1EBF5E109957D
:10531000B0912500BD7FB0932500B0917F03B0FF11
:1053200002C006D901C043DB08956894E7EBF5E1BC
:10533000099508952F9250E060E020E02436D8F4DB
:105340002F93B3E02B2EEBE1F1E209952F91302F53
:10535000412F5017610728F4032F142F502F612F6E
:1053600000C013E003E10A95F1F71A95E1F7022F67
:105370000F5F202FE3CF052F162F2F900895CF9387
:10538000DF93CDB7DEB72F97CDBFDEBF21962F922B
:105390003F924F925F92CEDF20E0322FC6DF009324
:1053A000A6031093A7032093A8033093A90340E01A
:1053B00050E060EA70E49FD040E050E060E874E4C0
:1053C000FBDA0093A6031093A7032093A80330935E
:1053D000A90340E050E86FE773E48DD00093A60383
:1053E0001093A7032093A8033093A903B0E02B2EBA
:1053F0003B2E4B2EB0E45B2E14D4A801B9010091D2
:10540000A6031091A7032091A8033091A903D4DA31
:105410000093A6031093A7032093A8033093A90336
:105420000091700310E0212F312F7FDF4091A60300
:105430005091A7036091A8037091A903E6E5F7E1F5
:1054400009950093A6031093A7032093A803309314
:10545000A903B9B1B3FD2CC0AE010091A603109110
:10546000A7032091A8033091A9033F932F931F9383
:105470000F93BCE6BF93B3E9BF935F934F93EFE401
:10548000F4E10995ADB7BEB71896ADBFBEBFB0E1A8
:105490004B2EB3E05B2EB8E03B2EB2E02B2E2DD985
:1054A0008E012801B9E03B2EB2E02B2E26D909C08F
:1054B000B5E14B2EB3E05B2EB9E03B2EB2E02B2ED4
:1054C0001CD90091A6031091A7032091A803309145
:1054D000A903E0EFF3E0099518012901E6E5FBE1F6
:1054E00009955F904F903F902F902E96CDBFDEBFD5
:1054F000DF91CF910895042E152E262E372EB9D880
:10550000002E112E222E332E0895CF93DF93CDB788
:10551000DEB72297CDBFDEBF2196288239820FB633
:10552000BFB3B1FF01C0FCCFF8941C2F2D2FE12F8A
:10553000F22F3196008102BDE12FF22F008101BDD3
:10554000BFB3B160BFBB0FBE00B52196CDBFDEBFFC
:10555000DF91CF910895BAB1B061BAB9BAB1B06272
:10556000BAB9BAB1B064BAB9BAB1B068BAB9BAB175
:10557000B160BAB9BAB1BB7FBAB9BAB1BD7FBAB975
:10558000BAB1BE7FBAB9BAB1B77FBAB9B7B1B46070
:10559000B7B9B7B1B160B7B90895B8EEB0938203A7
:1055A000B4E1B0938303B7E8B0937A0020927C0013
:1055B0000895B0912500BD7FB0932500B0912500DE
:1055C000BE7FB0932500B0912500BF7DB09325002C
:1055D000B0912500BF7EB0932500B0912500B77F24
:1055E000B0932500B0912500BB7FB0932500B0910A
:1055F0002400B260B0932400B0912400B160B09355
:105600002400B0912400B460B0932400B091240031
:10561000B860B0932400B0912400B061B09324002E
:10562000B0912400B062B0932400E8E9F2E2099559
:10563000E8E9F2E20995E8E9F2E20995B09125007E
:10564000B860B0932500B0912500B460B0932500F8
:10565000B0912500B260B0932500E1EBF5E109952A
:10566000B0912500BD7FB0932500E8E9F2E20995ED
:10567000B0912500B260B0932500E1EBF5E109950A
:10568000B0912500BD7FB0932500E8E9F2E20995CD
:10569000B0912500B260B0932500E1EBF5E10995EA
:1056A000B0912500BD7FB0932500E8E9F2E20995AD
:1056B000B0912500BB7FB0932500B0912500B2606A
:1056C000B0932500E1EBF5E10995B0912500BD7F90
:1056D000B0932500E8E9F2E20995B0912500B260A7
:1056E000B0932500E1EBF5E10995B0912500BD7F70
:1056F000B0932500B0912500B77FB0932500B091FD
:105700002500B062B0932500B0912500B260B0933F
:105710002500E1EBF5E10995B0912500BD7FB0933F
:105720002500E8E9F2E20995B0912500BF7DB0932C
:105730002500B0912500B460B0932500B0912500FC
:10574000B260B0932500E1EBF5E10995B091250039
:10575000BD7FB0932500B0912500BB7FB09325009D
:10576000B0912500B260B0932500E1EBF5E1099519
:10577000B0912500BD7FB0932500E8E9F2E20995DC
:10578000B0912500B260B0932500E1EBF5E10995F9
:10579000B0912500BD7FB0932500B0912500B46085
:1057A000B0932500B0912500B260B0932500E1EBE5
:1057B000F5E10995B0912500BD7FB0932500E8E99A
:1057C000F2E20995B0912500BB7FB0932500B0911E
:1057D0002500B260B0932500E1EBF5E10995B091A9
:1057E0002500BD7FB0932500B0912500B062B09335
:1057F0002500B0912500B061B0932500B09125003F
:10580000B860B0932500B0912500B460B093250036
:10581000B0912500B260B0932500E1EBF5E1099568
:10582000B0912500BD7FB0932500E8E9F2E209952B
:10583000B0917F03B160B0937F0308952F923F92A0
:105840004F925F92B2E02B2EE5E7F2E209951091BC
:10585000A003012F0F7000938E03012F007F009390
:105860008D03069506950695069500938D03BDE973
:105870004B2EB2E05B2EB1E03B2EB1E02B2EEDE7DC
:10588000F3E2099500918D03005D402EB6E03B2EBA
:10589000B1E02B2EEBEFF2E1099500918E03005D54
:1058A000202EE5E0F4E10995BDE22B2EE5E0F4E1E0
:1058B0000995B1E02B2EE5E7F2E209951091A003DE
:1058C000012F0F7000938E03012F007F00938D0333
:1058D000069506950695069500938D03005D202E8E
:1058E000E5E0F4E1099500918E03005D202EE5E0EE
:1058F000F4E10995BDE22B2EE5E0F4E109952224BF
:10590000E5E7F2E209951091A003012F0F700093D3
:105910008E03012F007F00938D0306950695069553
:10592000069500938D03005D202EE5E0F4E10995D6
:1059300000918E03005D202EE5E0F4E1099525E05D
:105940001FE002EF0A95F1F71A95E1F72A95D1F7D2
:105950005F904F903F902F9008952F924F923F92DB
:105960002224E5E7F2E209951091A003012F0F70C0
:1059700000938403012F007F00938503069506950D
:105980000695069500938503B1E02B2EE5E7F2E23C
:1059900009951091A003012F0F7000938703012F29
:1059A000007F00938603069506950695069500935D
:1059B0008603B2E02B2EE5E7F2E209953F904F9087
:1059C0001091A003012F0F7000938C03012F007F13
:1059D0000093960306950695069506950093960303
:1059E000232CE8E9F5E109950F7000939503232C2A
:1059F000E8E9F5E10995007F069506950695069577
:105A000000939703242CE8E9F5E109950F700093C2
:105A10009903242CE8E9F5E10995007F06950695A0
:105A200006950695009398031091870300919503BE
:105A30001017A1F41091860300919703101771F4C9
:105A400010918C0300919903101741F41091960363
:105A500000919803101711F401E001C000E02F90AD
:105A600008952F923F924F925F92B1E02B2EEBE17F
:105A7000F1E20995009393031093940320E0322FF1
:105A800054DC40E050E060EA70E435DD40E050E096
:105A900060E874E4ECEDF4E2099500938F03109351
:105AA0009003209391033093920348E756E362EB0F
:105AB00071E421DD4AE959E969E97EE3E6E5F7E1C8
:105AC00009950093A2031093A3032093A40330939A
:105AD000A5033F932F931F930F93BCE6BF93BAE99F
