:1000000032C00000FDCF00003BC00000F9CF00006F
:10001000F7CF0000F5CF0000F3CF00002CC00000A8
:10002000EFCF0000EDCF0000EBCF0000E9CF0000E4
:10003000E7CF0000E5CF000019C00000E1CF0000CD
:10004000DFCF0000DDCF0000DBCF0000D9CF000004
:10005000D7CF0000D5CF0000D3CF0000D1CF000014
:10006000CFCF0000CDCFECE8F5E30994EF93FF93F9
:10007000EBE8F4E30994EF93FF93E0E2F3E30994F0
:10008000EF93FF93E6EFF3E3099400951095209525
:1000900030950F5F1F4F2F4F3F4F08959BD021F09A
:1000A000662309F0F2DF98940895B091BC00BB7FFD
:1000B000B093BC000895002329F4112319F42223DE
:1000C00009F433230895F7DF39F041585F4F342F97
:1000D000220F36952795362B0895E0DF09F441C0AD
:1000E000E62ED52EC42EB32EA22E912E802E002DBC
:1000F000112D222D332DD2DF09F43DC0842F952FF1
:100100008C199D09B9F072F49095809501964C2D4B
:100110005D2D883180F535952795179507950197C1
:10012000D1F708C08831E8F4B594A79497948794E0
:100130000197D1F766272EF0080D191D2A1D3B1DCA
:1001400009C0801A910AA20AB30A082D192D2A2D76
:100150003B2D332312F499DF60E854D001C0B3DFA4
:1001600016C0002D112D222D332DD6F7A4DFC1F39B
:1001700040E83427F5CF082D192D2A2D3B2D4C2D85
:100180005D2D6E2D33235AF780DF60E8E8CF0895A8
:10019000B091C000B5FD01C0FBCFB091C000B6FF6B
:1001A00005C0B091C000B064B093C0002092C600FA
:1001B00008950091B900087F0895B3E02B1609F463
:1001C00074DFB4E02B1609F470DFB5E02B1609F4E8
:1001D0006CDF089570DF79F0632F6078220F331F92
:1001E000432F5FE7451B55275040269530E8232BCA
:1001F0003327989403C044275527662708956894A9
:100200006CDF089558DF11F19F938F938EE790E094
:10021000332351F0369527951795079548175907B9
:10022000B4F44F5F5F4FF4CF8095909501962223F1
:100230009AF0000F111F221F481759071CF0415058
:100240005040F5CF002711272227332708C0332736
:100250000FEF102F2FE7322F8F919F9134DF0895EA
:10026000B9DF81F1E62ED52EC42EB32EA22E912E0B
:10027000802E002D112D222D332DACDF19F16E258E
:100280004C0D5D1D40385307F4F441387FEF57079C
:10029000FCF088279927AA27BB2770E2B695A79577
:1002A00097958795379527951795079520F4880D8D
:1002B000991DAA1DBB1D7A9589F7032F3A2F292F67
:1002C000182FA0DF0AC00FEF102F2FE73FE7FACF5C
:1002D0000027102F202F302FF5CF0895C801BA0125
:1002E000AA1BBB1B51E107C0AA1FBB1FA617B7075C
:1002F00010F0A61BB70B881F991F5A95A9F7809578
:10030000909508957CDF332332F0D5DE11F001E0C3
:1003100003C0002701C00FEF08952F92409196016E
:10032000509197016091980170919901B4EAB0934E
:10033000BC00B091BC00B7FD25C0009196011091A2
:1003400097012091980130919901B02FB12BB22BD8
:10035000B32BB9F0B42FB52BB62BB72B49F4B5E0BE
:100360002B2EE0915902F0915A02099501E010C03C
:100370008A019B010150104020403040A801B90182
:1003800000C0D7CF16DF0830B0E009F0B1E00B2F86
:100390002F9008952F92409196015091970160916E
:1003A000980170919901B4E8B093BC0020FAB09123
:1003B000BC00B6F9B093BC00B091BC00B7FD25C03D
:1003C0000091960110919701209198013091990127
:1003D000B02FB12BB22BB32BB9F0B42FB52BB62B5A
:1003E000B72B49F4B3E02B2EE0915902F0915A0259
:1003F000099501E00CC08A019B010150104020408A
:100400003040A801B90100C0D7CF0091BB002F90A8
:100410000895B4E9B093BC0008952F9240919601DD
:100420005091970160919801709199012092BB00C1
:10043000B4E8B093BC00B091BC00B7FD24C00091FB
:100440009601109197012091980130919901B02F58
:10045000B12BB22BB32BB1F0B42FB52BB62BB72BDE
:1004600041F4B4E02B2EE0915902F0915A02099523
:100470000AC08A019B010150104020403040A80171
:10048000B90100C0D8CF2F900895002400FD040EBC
:10049000440F11F00695D1F7002D08953F932F9347
:1004A0001F930F93002D112D222D332D93DE09F470
:1004B0004BC0E62ED52EC42EB32EA22E912E802E0A
:1004C0000F911F912F913F9185DE61F16E254C199F
:1004D0005D09403853073CF541387FEF57077CF101
:1004E00080E27724632E522E412E302F22271127AF
:1004F0000027000F111F221F331F441C551C661CB0
:10050000771C28F0481859086A087B0804C0480C72
:10051000591C6A1C7B1C0AF001608A9551F74150F6
:10052000504070DE16C00FEF102F2FE73FE7662315
:10053000C9F3C1DDB9F3342D30E83425F3CF0027FA
:10054000102F202F302FEECF0F900F900F900F9085
:10055000EACF0895E894C1DD0895992779E004C0B1
:10056000991F941708F0941B001F7A95C9F70095FE
:10057000089547E16627552726F0332312F485DDD9
:1005800060E840DE0895022D0695069506950695CD
:100590004AE07BDF122D1F70010F08952F923F92CA
:1005A0002F92BBDEB0ED2B2E38DF2F9036DF3F9041
:1005B000232C33DF2EDF2F900895042E152E262EA8
:1005C000372EA0DE002308952F922F92A6DEB0EDE5
:1005D0002B2E23DF2F9021DFA0DEB1ED2B2E1DDF90
:1005E0002224D8DE00936C0214DF00916C022F905D
:1005F0000895C801BA0197FB092E07260AD077FD96
:1006000004D00CD006D000201AF4709561957F4F6D
:100610000895F6F7909581959F4F0895AA1BBB1BEF
:1006200051E107C0AA1FBB1FA617B70710F0A61BF2
:10063000B70B881F991F5A95A9F780959095BC0113
:10064000CD0108950895042E152E262E372E08DE8E
:10065000002E112E222E332E0895CF93DF93CDB787
:10066000DEB72297CDBFDEBF219610E0153050F4E3
:10067000E12FF0E0E40DF51DB0E2B083012F0F5F34
:10068000102FF4CFE12FF0E0E40DF51DB0E0B083C2
:10069000012F0150302F032F10E0040D151D08838A
:1006A00019834AE050E0810119DE8D01202F205D81
:1006B00008811981F80120834AE050E081010EDEB3
:1006C0008C011801103009F4003009F404C0032F24
:1006D0000150302FE0CF2196CDBFDEBFDF91CF910B
:1006E00008956BDF1CF00024039401C000240895DA
:1006F00064DF19F00024039401C0002408952F92B0
:10070000B2E02B2E61DF00916C02102F1F7010934E
:100710006B02007F00936D0206950695069506957F
:1007200000936D02000F000F000F000F010F0093E8
:100730006902202E28DF009369022F9008952F92DE
:10074000B1E02B2E41DF00916C02102F1F7010932F
:100750006B02007F00936D0206950695069506953F
:1007600000936D02000F000F000F000F010F0093A8
:100770006802202E08DF009368022F900895CF931F
:10078000DF93CDB7DEB72497CDBFDEBF21962F9282
:100790003F92B0E0B883B9832A823B8200E010E048
:1007A0002016310654F4B1E0B883B0E0B98300E01C
:1007B00010E0021913090A831B832A803B804DDF56
:1007C00066E070E0AB0100E010E00417150790F45C
:1007D0009A01240D351D8A0101501040F801E40DE5
:1007E000F51D0081F90100838A0101501040B80114
:1007F000AB01E9CFF201B0E2B08308811981B02FDB
:10080000B12BA9F020E030E0F901E40DF51D0081E5
:10081000003229F489010F5F1F4F9801F5CF89013C
:1008200001501040F801E40DF51DBDE2B0833F908A
:100830002F902396CDBFDEBFDF91CF9108952F92E9
:100840003F9281017F926F925F924F92302E2224CD
:10085000A5DE4F905F908201302EB1E02B2E9EDE00
:100860006F907F908301302EB2E02B2E97DE3F9069
:100870002F9008952F923F9281017F926F925F9205
:100880004F92302EB4E02B2E89DE4F905F90820184
:10089000302EB5E02B2E82DE6F907F908301302EBC
:1008A000B6E02B2E7BDE3F902F9008952F928CDEAA
:1008B00000916C02102F1F7010936B02007F009349
:1008C0006D02069506950695069500936D02000F3C
:1008D000000F000F000F010F00936A02202E53DE5D
:1008E00000936A022F90089509E0021578F44AE017
:1008F000022D33DE000F000F000F000F102F4AE013
:10090000022D2BDE092F012B102F01C0122D012FDC
:100910000895002E112E222E332E042F152F262F50
:10092000372FF0DC00231CF40024039401C00024C2
:10093000089568941EDE08954DDCF1F05523C2F051
:100940004F31A8F44731C1F050F44195495E05C0DC
:1009500035952795179507954A95D1F70DC04751BD
:10096000000F111F221F331F4A95D1F705C03FE723
:10097000232F132F032F03C0662309F086DB08956E
:10098000042E152E262E372E89DD002E112E222E16
:10099000332E0895042E152E262E372E30DC002EF1
:1009A000112E222E332E089530E040E036154705F3
:1009B00020F5E32FF42FE40DF51D2081032F142FD4
:1009C000020D131D5F924F923F922F92422E1801FB
:1009D00080D02F903F904F905F9023E018E008E781
:1009E0000A95F1F71A95E1F72A95D1F7032F142FFD
:1009F0000F5F1F4F302F412FD9CF0895C9019A01A2
:100A0000AB01B801A1E21A2EAA1BBB1BFD010DC050
:100A1000AA1FBB1FEE1FFF1FA217B307E407F507AE
:100A200020F0A20BB30BE40BF50B661F771F881F9A
:100A3000991F1A9469F7609570958095909508951F
:100A4000042E152E262E372E85DD002E112E222E59
:100A5000332E0895CF93DF93CDB7DEB72297CDBF66
:100A6000DEBF219610E0133050F4E12FF0E0E30DEB
:100A7000F41DB0E2B083012F0F5F102FF4CFE12FF0
:100A8000F0E0E30DF41DB0E0B083012F0150302FF2
:100A9000032F10E0030D141D088319834AE0022D73
:100AA0005CDD092F202F205D08811981F80120834A
:100AB0004AE0022D52DD202E003009F404C0032F3D
:100AC0000150302FE5CF2196CDBFDEBFDF91CF9112
:100AD0000895CF93DF93CDB7DEB72297CDBFDEBFAA
:100AE0002196288239820FB6BFB3B1FF01C0FCCF77
:100AF000F894BFB3BF7EBFBBBFB3BF7DBFBB1C2FCE
:100B00002D2FE12FF22F3196008102BDE12FF22F20
:100B1000008101BD40BCBFB3B460BFBBBFB3B26016
:100B2000BFBB0FBE2196CDBFDEBFDF91CF91089531
:100B300005E80A95F1F7000008951AE303E20A9523
:100B4000F1F71A95E1F700000000089502E00A9518
:100B5000F1F7000000000895CF93DF93CDB7DEB723
:100B60002497CDBFDEBF2196B0E02B160CF0C9C094
:100B700000E00219202E0E360CF46DC02F9244E6D0
:100B800050E0022D10E027FC1FEF33DD062F2F90E1
:100B900010E007FD1FEF0E5E1F4F9801220F331F5D
:100BA000220F331F03E81DE6F901E00FF11F059145
:100BB000159125913591088319832A833B832F92C0
:100BC00044E650E0022D10E027FC1FEF12DD082F55
:100BD00010E007FD1FEF4AE050E00BDD062F10E0AC
:100BE00007FD1FEF075F1F4F9801220F331F220FD2
:100BF000331F03E81DE6F901E00FF11F4591559100
:100C000065917591088119812A813B811CDD2F90A6
:100C1000088319832A833B834AE050E0022D10E0C9
:100C200027FC1FEFE6DC082F202F30E007FD3FEF09
:100C3000220F331F220F331F03E81DE6F901E00FD7
:100C4000F11F4591559165917591088119812A810E
:100C50003B81F9DC1CC10AE002150CF040C02F9268
:100C60004AE050E0022D10E027FC1FEFC2DC062F07
:100C70002F9010E007FD1FEF075F1F4F9801220F15
:100C8000331F220F331F03E81DE6F901E00FF11FA8
:100C90000591159125913591088319832A833B830A
:100CA0004AE050E0022D10E027FC1FEFA2DC082FE5
:100CB000202F30E007FD3FEF220F331F220F331F9D
:100CC00003E81DE6F901E00FF11F4591559165918B
:100CD0007591088119812A813B81B5DCD8C0222D0C
:100CE00030E027FC3FEF220F331F220F331F03E8B2
:100CF0001DE6F901E00FF11F059115912591359140
:100D0000C6C0BEE62B160CF46DC02F9244E650E030
:100D1000022D10E027FC1FEF6CDC062F2F9010E057
:100D200007FD1FEF0E5E1F4F9801220F331F220F8A
:100D3000331F07EB1DE6F901E00FF11F0591159137
:100D400025913591088319832A833B832F9244E6AA
:100D500050E0022D10E027FC1FEF4BDC082F10E0C5
:100D600007FD1FEF4AE050E044DC062F10E007FDCE
:100D70001FEF075F1F4F9801220F331F220F331FF2
:100D800007EB1DE6F901E00FF11F459155916591C3
:100D90007591088119812A813B8155DC2F90088348
:100DA00019832A833B834AE050E0022D10E027FCA0
:100DB0001FEF1FDC082F202F30E007FD3FEF220F31
:100DC000331F220F331F07EB1DE6F901E00FF11F60
:100DD0004591559165917591088119812A813B81D1
:100DE00032DC55C00AE002150CF040C02F924AE0F8
:100DF00050E0022D10E027FC1FEFFBDB062F2F90A9
:100E000010E007FD1FEF075F1F4F9801220F331FF0
:100E1000220F331F07EB1DE6F901E00FF11F0591CB
:100E2000159125913591088319832A833B834AE0E4
:100E300050E0022D10E027FC1FEFDBDB082F202FF6
:100E400030E007FD3FEF220F331F220F331F07EB68
:100E50001DE6F901E00FF11F4591559165917591DE
:100E6000088119812A813B81EEDB11C0222D30E0FF
:100E700027FC3FEF220F331F220F331F07EB1DE626
:100E8000F901E00FF11F05911591259135912396F8
:100E9000CDBFDEBFDF91CF91089509E3021528F0A1
:100EA000B0E32B1610F001E001C000E00895CF93ED
:100EB000DF93CDB7DEB72497CDBFDEBF2196BEE668
:100EC0002B1608F45AC044E6022D47DB10E00E5EF4
:100ED0001F4F9801220F331F220F331F03E81DE617
:100EE000F901E00FF11F05911591259135912F9290
:100EF00040E050E060E07FE3A6DB2F900883198399
:100F00002A833B8344E6022D28DB092F4AE025DBB8
:100F100010E0075F1F4F9801220F331F220F331F6E
:100F200003E81DE6F901E00FF11F45915591659128
:100F30007591088119812A813B812F9284DB2F9042
:100F4000088319832A833B834AE0022D06DB092F9D
:100F5000202F30E0220F331F220F331F03E81DE63E
:100F6000F901E00FF11F4591559165917591088147
:100F700019812A813B8167DB50C00AE0021508F025
:100F800038C04AE0022DE9DA10E0075F1F4F9801F0
:100F9000220F331F220F331F03E81DE6F901E00F74
:100FA000F11F05911591259135912F9240E050E068
:100FB00060E07FE348DB2F90088319832A833B831B
:100FC0004AE0022DCADA092F202F30E0220F331F0A
:100FD000220F331F03E81DE6F901E00FF11F4591D1
:100FE000559165917591088119812A813B812BDB8F
:100FF00014C0222D30E0220F331F220F331F03E8CD
:101000001DE6F901E00FF11F05911591259135912C
:1010100040E050E060E07FE316DB2396CDBFDEBF0B
:10102000DF91CF910895C9DA1CF40024039401C024
:10103000002408952227002400FF02C0040E251F6B
:10104000440F551F4115510529F01695079510506D
:10105000004091F7122F002D08952F923F924F924A
:101060005F926F927F92B0E14B2EB1E03B2EB1E0E8
:101070002B2EE5E9FDE2099525E11BE40FEB0A952E
:10108000F1F71A95E1F72A95D1F70000B9B1B2FF4F
:10109000BBC0BCE24B2EB1E05B2EB1E03B2EB1E019
:1010A0002B2EE3E7F6E2099500912A0210912B021C
:1010B00020912C0230912D023F932F931F930F9379
:1010C000BEE6BF93BAE9BF93B2E0BF93B0E4BF936B
:1010D000E7E0F3E20995ADB7BEB71896ADBFBEBF66
:1010E000B0E44B2EB2E05B2EBAE03B2EB1E02B2EEB
:1010F000E3E7F6E20995B6B1B0FF01C085C0B9B12A
:10110000B0FD04C0B9B1B1FD01C07DC0B9B1B0FF3F
:101110001FC029E01EE105EE0A95F1F71A95E1F7E7
:101120002A95D1F7000000912A0210912B022091FC
:101130002C0230912D024DEC5CEC6CEC7DE380DCFC
:1011400000932A0210932B0220932C0230932D023D
:10115000B9B1B1FF1FC029E01EE105EE0A95F1F714
:101160001A95E1F72A95D1F700004DEC5CEC6CEC98
:101170007DE300912A0210912B0220912C023091E4
:101180002D0208DC00932A0210932B0220932C02DC
:1011900030932D0240E050E062E872E400912A02B0
:1011A00010912B0220912C0230912D02B2DB0028ED
:1011B00000E009F001E0002349F0B0E0B0932A021A
:1011C000B0932B02B0932C02B0932D0240E050E07C
:1011D00060E070E000912A0210912B0220912C0215
:1011E00030912D0220DF002800E009F001E000230B
:1011F00049F0B0E0B0932A02B0932B02B0932C02D6
:10120000B0932D027CCF42CFB4E06B2EB0E07B2EAA
:10121000BAE24B2EB2E05B2EB0E42B2EB0E03B2EB8
:10122000C3DB25E11BE40FEB0A95F1F71A95E1F713
:101230002A95D1F70000B9B1B2FFBBC0B8E14B2E7F
:10124000B1E05B2EB1E03B2EB1E02B2EE3E7F6E2FE
:10125000099500913F011091400120914101309189
:1012600042013F932F931F930F93BEE6BF93BCE8B9
:10127000BF93B2E0BF93B0E4BF93E7E0F3E2099518
:10128000ADB7BEB71896ADBFBEBFB0E44B2EB2E04F
:101290005B2EBAE03B2EB1E02B2EE3E7F6E2099598
:1012A000B6B1B0FF01C085C0B9B1B0FD04C0B9B1DD
:1012B000B1FD01C07DC0B9B1B0FF1FC029E01EE182
:1012C00005EE0A95F1F71A95E1F72A95D1F7000096
:1012D00000913F0110914001209141013091420164
:1012E0004DEC5CEC6CEC7DE3ABDB00933F011093C9
:1012F00040012093410130934201B9B1B1FF1FC0B9
:1013000029E01EE105EE0A95F1F71A95E1F72A9515
:10131000D1F700004DEC5CEC6CEC7DE300913F01FB
:1013200010914001209141013091420133DB009343
:101330003F0110934001209341013093420140E06E
:1013400050E062E872E400913F0110914001209169
:10135000410130914201DDDA002800E009F001E0AE
:10136000002349F0B0E0B0933F01B0934001B09347
:101370004101B093420140E050E060E070E0009134
:101380003F011091400120914101309142014BDE1B
:10139000002800E009F001E0002349F0B0E0B0933C
:1013A0003F01B0934001B0934101B09342017CCF23
:1013B00042CFB4E06B2EB0E07B2EBFE34B2EB1E00A
:1013C0005B2EB5E52B2EB0E03B2EEEDAB1E02B2EF6
:1013D00007D07F906F905F904F903F902F9008952F
:1013E00027FAB0912500B5F9B093250026FAB091FF
:1013F0002500B4F9B093250025FAB0912500B3F982
:10140000B093250024FAB0912500B2F9B0932500DD
:10141000B091550200902500E894B0FF689400F860
:1014200000922500B0912500B260B09325008EDBBC
:10143000B0912500BD7FB093250023FAB09125001F
:10144000B5F9B093250022FAB0912500B4F9B09314
:10145000250021FAB0912500B3F9B093250020FAB8
:10146000B0912500B2F9B0932500B09155020090DB
:101470002500E894B0FF689400F800922500B09130
:101480002500B260B093250061DBB0912500BD7FDF
:10149000B0932500B0915502B0FF02C04EDB01C0F1
:1014A00047DB089500917C00007E022900937C00B8
:1014B000B0917A00B064B0937A00B0917A00B6FF30
:1014C00001C0FBCF2091780030E000917900102F0F
:1014D0000027022B132B0895CF93DF93CDB7DEB7F0
:1014E0002297CDBFDEBF21962F923F924F925F92FF
:1014F0006F927F92B0E14B2EB1E03B2EB1E02B2EEC
:10150000E5E9FDE20995B0E14B2EB1E03B2EB2E0FA
:101510002B2EE5E9FDE2099525E11BE40FEB0A9589
:10152000F1F71A95E1F72A95D1F7000008D9009351
:101530004701E5D800935301B9B1B2FF5DC0B0E4F3
:101540003B2EB2E04B2E2090530184DAB0E54B2EB7
:10155000B1E05B2EB1E03B2EB1E02B2EE3E7F6E2EB
:101560000995B0E44B2EB2E05B2EB2E03B2EB1E029
:101570002B2EE3E7F6E20995B6B1B0FF01C03CC0FF
:10158000B9B1B0FD04C0B9B1B1FD01C034C0B9B149
:10159000B0FF0FC029E01EE105EE0A95F1F71A959C
:1015A000E1F72A95D1F70000009153010F5F0093F6
:1015B0005301B9B1B1FF0FC029E01EE105EE0A9554
:1015C000F1F71A95E1F72A95D1F700000091530140
:1015D0000150009353011091530107E1011718F4D2
:1015E000B0E0B093530100915301003018F4B0E023
:1015F000B0935301C5CFA0CF25E11BE40FEB0A95B3
:10160000F1F71A95E1F72A95D1F70000B9B1B2FFC9
:101610005DC0B0E43B2EB2E04B2E209047011ADAB9
:10162000B5E34B2EB1E05B2EB6E03B2EB1E02B2EA6
:10163000E3E7F6E20995B0E44B2EB2E05B2EB7E0AB
:101640003B2EB1E02B2EE3E7F6E20995B6B1B0FFF1
:1016500001C03CC0B9B1B0FD04C0B9B1B1FD01C019
:1016600034C0B9B1B0FF0FC029E01EE105EE0A9504
:10167000F1F71A95E1F72A95D1F70000009147019B
:101680000F5F00934701B9B1B1FF0FC029E01EE120
:1016900005EE0A95F1F71A95E1F72A95D1F70000C2
:1016A00000914701015000934701109147010BE35E
:1016B000011718F4B0E0B0934701009147010030E2
:1016C00018F4B0E0B0934701C5CFA0CF25E11BE4EB
:1016D0000FEB0A95F1F71A95E1F72A95D1F700007B
:1016E000B9B1B2FF74C0B0E43B2EB2E04B2E2090F3
:1016F0000B01B0D9B8E04B2EB1E05B2EBCE03B2E25
:10170000B1E02B2EE3E7F6E20995B0E44B2EB2E010
:101710005B2EBDE03B2EB1E02B2EE3E7F6E2099510
:10172000B6B1B0FF01C053C0B9B1B0FD04C0B9B18A
:10173000B1FD01C04BC0B9B1B0FF0FC029E01EE13F
:1017400005EE0A95F1F71A95E1F72A95D1F7000011
:1017500000910B010F5F00930B01B9B1B1FF0FC0F6
:1017600029E01EE105EE0A95F1F71A95E1F72A95B1
:10177000D1F7000000910B01015000930B01109173
:101780000B010BE3011718F4B0E0B0930B010091CB
:101790000B01003018F4B0E0B0930B01209053011E
:1017A000A3D80983209047019FD8088320900B017C
:1017B0009BD829811881622EB0E07B2E412EB0E0AB
:1017C0005B2E202EB0E03B2E3AD8AECF89CF25E15C
:1017D0001BE40FEB0A95F1F71A95E1F72A95D1F77B
:1017E0000000B0E14B2EB1E03B2EB2E02B2EE5E93C
:1017F000FDE20995B4E02B2E59D800930F01B9B141
:10180000B2FF73C0B0E43B2EB2E04B2E20900F012C
:1018100021D9BCE04B2EB1E05B2EB1E03B2EB2E013
:101820002B2EE3E7F6E20995B3E04B2EB1E05B2EF9
:10183000B6E03B2EB2E02B2EE3E7F6E20995B0E0EE
:101840004B2EB1E05B2EBCE03B2EB2E02B2EE3E74B
:10185000F6E20995B0E44B2EB2E05B2EB2E03B2EEF
:10186000B2E02B2EE3E7F6E20995B6B1B0FF01C076
:101870003CC0B9B1B0FD04C0B9B1B1FD01C034C0C4
:10188000B9B1B0FF0FC029E01EE105EE0A95F1F7EE
:101890001A95E1F72A95D1F7000000910F010F5F2B
:1018A00000930F01B9B1B1FF0FC029E01EE105EEB1
:1018B0000A95F1F71A95E1F72A95D1F70000009102
:1018C0000F01015000930F0110910F010FE101175B
:1018D00018F4B0E0B0930F0100910F01003018F43C
:1018E000B0E0B0930F01C5CF8ACF25E11BE40FEB29
:1018F0000A95F1F71A95E1F72A95D1F70000B5E0BE
:101900002B2EE6E5F4E0099500930701B9B1B2FF8B
:1019100052C0B0E43B2EB2E04B2E209007019AD883
:10192000B0E44B2EB2E05B2EB7E03B2EB2E02B2EA4
:10193000E3E7F6E20995B6B1B0FF01C03CC0B9B12A
:10194000B0FD04C0B9B1B1FD01C034C0B9B1B0FF40
:101950000FC029E01EE105EE0A95F1F71A95E1F7AF
:101960002A95D1F70000009107010F5F009307014E
:10197000B9B1B1FF0FC029E01EE105EE0A95F1F7FC
:101980001A95E1F72A95D1F700000091070101505F
:1019900000930701109107010CE0011718F4B0E063
:1019A000B093070100910701003018F4B0E0B09344
:1019B0000701C5CFABCF25E11BE40FEB0A95F1F78B
:1019C0001A95E1F72A95D1F70000B6E02B2EE6E54F
:1019D000F4E0099500930601B9B1B2FF71C0B0E41B
:1019E0003B2EB2E04B2E2090060134D8B0E44B2EB3
:1019F000B2E05B2EBDE03B2EB2E02B2EE3E7F6E239
:101A00000995B6B1B0FF01C05BC0B9B1B0FD04C06B
:101A1000B9B1B1FD01C034C0B9B1B0FF0FC029E008
:101A20001EE105EE0A95F1F71A95E1F72A95D1F72F
:101A30000000009106010F5F00930601B9B1B1FFEC
:101A40000FC029E01EE105EE0A95F1F71A95E1F7BE
:101A50002A95D1F70000009106010150009306017C
:101A60001091060103E6011718F4B0E0B0930601E7
:101A700000910601003018F4B0E0B0930601C5CF24
:101A800020900601E4E7F4E009950983209007011E
:101A9000E4E7F4E00995088320900F01E4E7F4E01F
:101AA000099529811881622EB0E07B2E412EB0E08D
:101AB0005B2E202EB0E03B2EEAE3F4E009958CCFBC
:101AC0007F906F905F904F903F902F902196CDBF69
:101AD000DEBFDF91CF910895CF93DF93CDB7DEB70F
:101AE000A397CDBFDEBF2196B0E0B98FBA8FF201C8
:101AF00082010F5F1F4F280104910A87002319F408
:101B0000EEE6FBE109940A85053271F00A85F101E0
:101B1000008381010F5F1F4F1801098D1A8D0F5F20
:101B20001F4F098F1A8FE3CFB0E0BB87BC87B0E0AF
:101B3000BD87BE8732C00D851E8508600D871E8754
:101B400082010F5F1F4F28013DC00D851E8501607A
:101B50000D871E8782010F5F1F4F280133C00D853F
:101B60001E8502600D871E8782010F5F1F4F2801AF
:101B700029C00D851E8518600D871E8782010F5FA5
:101B80001F4F28011FC00D851E8504600D871E870D
:101B900082010F5F1F4F280115C0F20104910D3221
:101BA00051F2F2010491003281F2F20104910B3200
:101BB000B1F2F20104910332E1F2F2010491003337
:101BC00011F301C0B7CF0D851E8501FF05C00D853E
:101BD0001E850E7F0D871E870D851E8503FF05C0A0
:101BE0000D851E850B7F0D871E87F201049110E085
:101BF0003F922F92202E51D92F903F90002309F130
:101C0000B0E0BB87BC870B851C854AE050E012DA48
:101C1000F2012491020FB0E01B1F005310400B870C
:101C20001C8782010F5F1F4F2801F801049110E00B
:101C30003F922F92202E31D92F903F90002319F7F9
:101C400016C0F20104910A3291F4F301219131910D
:101C5000F901019111910B871C8789010E5F1F4FBC
:101C6000F3010193119382010F5F1F4F2801F201CD
:101C700004910E3209F03DC082010F5F1F4F280111
:101C8000F80104910A3299F4F30121913191F9019B
:101C9000019111910887198789010E5F1F4FF30188
:101CA0000193119382010F5F1F4F280121C0B0E003
:101CB000B887B987F201049110E03F922F92202E4D
:101CC000ECD82F903F90002399F0088519854AE0C1
:101CD00050E0B0D9F2012491020FB0E01B1F005375
:101CE00010400887198782010F5F1F4F2801E2CF3C
:101CF00008C0B0E0B887B9870D851E8510610D87D3
:101D00001E87F20182010F5F1F4F280104910A878D
:101D1000FFC0098D1A8DE0E7FBE109940D851E8552
:101D200000610D871E87EDCF0D851E8514600D8720
:101D30001E872FC10D851E8500620D871E870D85AC
:101D40001E8511600D871E8724C10D851E851260BA
:101D50000D871E871EC10D851E8500640D871E8799
:101D600018C117C10D851E8500620D871E870D8560
:101D70001E8500680D871E870CC1F301019111912A
:101D8000F801019111910D8B1E8BF30101911191BD
:101D90000E5F1F4FF301019311930D891E891030BF
:101DA00009F4003021F4B9E8BD8BB1E0BE8BB0E09E
:101DB000BF8BB88F2D893E890F89188DF801E20FEE
:101DC000F31F0081002339F00F89188D0F5F1F4F1B
:101DD0000F8B188FEFCF08851985B02FB12B59F0D5
:101DE000288539850F89188D2017310720F408853B
:101DF00019850F8B188F2B853C850F89188D02173D
:101E0000130748F40F88188C0B851C8500191109DD
:101E10000B871C8703C0B0E0BB87BC870D851E8580
:101E200003FD19C02B853C850B851C850150104096
:101E30000B871C87B22FB32B71F0F101B0E2B08396
:101E400081010F5F1F4F1801098D1A8D0F5F1F4F02
:101E5000098F1A8FE7CF2F89388D0F89188D015080
:101E600010400F8B188FB22FB32BB1F0ED89FE8984
:101E70000081F101008381010F5F1F4F18010D895F
:101E80001E890F5F1F4F0D8B1E8B098D1A8D0F5FE3
:101E90001F4F098F1A8FDFCF0D851E8503FF19C0D5
:101EA0002B853C850B851C85015010400B871C87BA
:101EB000B22FB32B71F0F101B0E2B08381010F5F5B
:101EC0001F4F1801098D1A8D0F5F1F4F098F1A8F31
:101ED000E7CF0DCEF30101911191F80100810A873E
:101EE000F301019111910E5F1F4FF30101931193C3
:101EF0008E01065F1F4F0D8B1E8BB1E0BF8BB0E0D4
:101F0000B88F69CF0D851E85006C0D871E8741C077
:101F10000A85003009F4FDCE0A850C3609F4FECEA0
:101F20000A850C3409F4FACE0A85063609F4FCCE8B
:101F30000A85053409F4FECE0A85053609F4FFCE7C
:101F40000A85073609F401CF0A850F3609F403CF55
:101F50000A85043609F405CF0A85093609F401CF4C
:101F60000A85003709F4FECE0A85083509F4FACE51
:101F70000A85083709F4FBCE0A85033709F4FDCE3C
:101F80000A85033609F4A6CF0A85053709F4BACFC6
:101F9000AFCF0D851E8500701770B02FB12B19F4CF
:101FA000E2EFF7E109940D851E8514FF04C0B6E049
:101FB000B887B0E0B987F30101911191F80101915F
:101FC0001191219131910F87188B298B3A8BF30155
:101FD000019111910C5F1F4FF301019311933F92F7
:101FE0002F9240E050E060E070E00F851889298969
:101FF0003A8919D8002800E009F001E02F903F90BD
:102000000023A9F00F85188929893A89B0E00B27A8
:10201000B0E01B27B0E02B27B0E83B270F87188BD9
:10202000298B3A8B0D851E8503600D871E87B0E0D6
:10203000BB8BBC8B3F922F920F85188929893A89D7
:1020400040E050E060E070E0E8E7F3E00995002848
:1020500000E009F001E02F903F90002309F497C0C1
:10206000AE014D5E5F4FFE013F96019111912191AE
:102070003191B7E13695279517950795BA95D1F720
:1020800010700E571040FA01019311930B891C89AF
:10209000015010400B8B1C8B43E050E0EAE1F8E06C
:1020A00009950B8B1C8B7F926F925F924F923F92A0
:1020B0002F924AE050E0E9EFF2E009958B012F9072
:1020C0003F904F905F906F907F900B8B1C8B20E028
:1020D00030E00217130734F40B891C8901501040BB
:1020E0000B8B1C8B0B8800E000197F926F925F9224
:1020F0004F923F922F92202EECEAF5E009952F9017
:102100003F904F905F906F907F903F922F924F85BE
:10211000588969897A89E3E2F3E009950D8B1E8B72
:102120002F8B388F40E050E060E87FE30D891E89F7
:102130002F89388DE3E1F8E00995002800E009F0E7
:1021400001E02F903F90002339F00B891C8901504A
:1021500010400B8B1C8B1BC03F922F9240E050E035
:1021600060E271E40D891E892F89388DE1E7F3E083
:102170000995002800E009F001E02F903F9000232E
:1021800031F00B891C890F5F1F4F0B8B1C8B2B8928
:102190003C8900E010E0021713071CF0B1E0BA8799
:1021A00002C00B890A870D851E8510FD15C00D859F
:1021B0001E8511FF10C02B893C890CEF1FEF2017E3
:1021C000310744F02B893C89088519852017310790
:1021D0000CF401C001C082C308851985B02FB12B52
:1021E00051F00D851E8511FF06C008851985015027
:1021F0001040088719872885398508E010E0021704
:10220000130718F4B8E0BA8702C008850A873F921E
:102210002F920F85188929893A8940E050E060E0C3
:1022200070E0E8E7F3E00995002800E009F001E03C
:102230002F903F90002309F4D2C07F926F925F925B
:102240004F923F922F922B88ECEAF5E00995A80176
:10225000B9010F85188929893A89E0ECF4E00995DC
:102260000F87188B298B3A8B0A8400E00019202EE7
:10227000ECEAF5E00995A801B9010F8518892989CB
:102280003A89E0ECF4E009952F903F904F905F90F1
:102290006F907F900F87188B298B3A8BECE9F4E0D5
:1022A0000995E9E9F4E009953F922F92A801B90157
:1022B0000F85188929893A89EAECF4E0099540E00C
:1022C00050E060E07FE3E1E7F3E009950028B0E04B
:1022D00009F0B1E00B2F2F903F90002399F03F922F
:1022E0002F920F85188929893A8940E050E060E0F3
:1022F0007FE3E0E2F5E009952F903F900F87188B80
:10230000298B3A8B0F85188929893A89ECE9F4E001
:1023100009954A8550E04F5F5F4FBA01660F771FFE
:10232000660F771F4BE15EE6FB01E40FF51F459159
:102330005591659175910417150726073707D0F059
:102340003F922F920F85188929893A894DEC5CECD0
:102350006CEC7DE3E3E2F3E009952F903F900F876B
:10236000188B298B3A8B0B891C890F5F1F4F0B8BA6
:102370001C8B35C00F85188929893A89ECE9F4E06E
:1023800009954A85642F70E0660F771F660F771FE7
:102390004BE15EE6FB01E40FF51F45915591659118
:1023A00075910417150726073707C8F43F922F9237
:1023B0000F85188929893A8940E050E060E271E48C
:1023C000E3E2F3E009952F903F900F87188B298B5C
:1023D0003A8B0B891C89015010400B8B1C8B0D858F
:1023E0001E8511FF79C00D851E8513FD75C02885DA
:1023F00039850AE010E00217130724F4BAE0B88721
:10240000B0E0B9870F85188929893A89ECE9F4E0A9
:1024100009950D8B1E8B2F8B388F0D891E892F8967
:10242000388DB02FB12BB22BB32B69F14AE050E0BD
:1024300060E070E00D891E892F89388DEEEFF4E0A1
:1024400009958D019F01303029F4203019F41030A6
:1024500009F40030C1F4088519850150104008873F
:1024600019874AE050E060E070E00D891E892F89ED
:10247000388DEEEFF4E009958B019C010D8B1E8BDE
:102480002F8B388FCACF188529850A851017B0E0A1
:102490002B0714F508840A8500197F926F925F92CA
:1024A0004F923F922F92202EECEAF5E00995A80179
:1024B000B9010F85188929893A89E0ECF4E009957A
:1024C0002F903F904F905F906F907F900F87188B69
:1024D000298B3A8B08850A872885398589010B5F06
:1024E0001F4F08010B851C85001911090B871C87DC
:1024F000B22FB32B29F40D851E8513FD01C006C034
:102500000B851C85015010400B871C870D851E858F
:1025100003701070B02FB12B31F00B851C8501506A
:1025200010400B871C870D851E8502FF48C00D8556
:102530001E8501FF17C00D851E8500FF03C0BDE28B
:10254000B88302C0BBE2B8830881F1010083810136
:102550000F5F1F4F1801098D1A8D0F5F1F4F098FD5
:102560001A8F11C00D851E8500FF0DC0F101B0E26C
:10257000B08381010F5F1F4F1801098D1A8D0F5F06
:102580001F4F098F1A8F2B853C8500E010E0021742
:102590001307A4F4F101B0E3B08381010F5F1F4F73
:1025A0001801098D1A8D0F5F1F4F098F1A8F0B8528
:1025B0001C85015010400B871C87E5CF4BC00D8553
:1025C0001E8503FD1BC02B853C8500E010E0021733
:1025D0001307A4F4F101B0E2B08381010F5F1F4F34
:1025E0001801098D1A8D0F5F1F4F098F1A8F0B85E8
:1025F0001C85015010400B871C87E5CF0D851E857B
:1026000001FF17C00D851E8500FF03C0BDE2B98321
:1026100002C0BBE2B9830981F101008381010F5F30
:102620001F4F1801098D1A8D0F5F1F4F098F1A8FC9
:1026300011C00D851E8500FF0DC0F101B0E2B08311
:1026400081010F5F1F4F1801098D1A8D0F5F1F4FFA
:10265000098F1A8F0F85188929893A89ECE9F4E0E6
:1026600009950D8B1E8B2F8B388F0A85202F30E01C
:10267000220F331F220F331F0BE11EE6F901E00F7B
:10268000F11F45915591659175910D891E892F898D
:10269000388DEEEFF4E009958B019C01005DF101AE
:1026A000008381010F5F1F4F1801098D1A8D0F5F85
:1026B0001F4F098F1A8F08851985B02FB12B29F468
:1026C0000D851E8513FD01C064C0F101BEE2B0831B
:1026D00081010F5F1F4F1801098D1A8D0F5F1F4F6A
:1026E000098F1A8F0A84B0E01B2E088519850019FE
:1026F0001109088719870A85002391F10A8501507D
:102700000A87202F30E0220F331F220F331F0BE1E7
:102710001EE6F901E00FF11F459155916591759104
:102720000D891E892F89388DEEEFF4E009958B0114
:102730009C014AE050E060E070E0EEEFF4E00995C3
:102740008D019F01005DF101008381010F5F1F4F2B
:102750001801098D1A8D0F5F1F4F098F1A8FCBCF6C
:1027600008851985B02FB12BA1F0F101B0E3B0833A
:1027700081010F5F1F4F1801098D1A8D0F5F1F4FC9
:10278000098F1A8F0885198501501040088719870D
:10279000E7CF0D851E8505FF0EC0F101B5E4B083BE
:1027A00081010F5F1F4F1801098D1A8D0F5F1F4F99
:1027B000098F1A8F0DC0F101B5E6B08381010F5F5B
:1027C0001F4F1801098D1A8D0F5F1F4F098F1A8F28
:1027D0002B893C8900E010E020173107B4F40B8806
:1027E0001C8800E010E0001911090B8B1C8BF10113
:1027F000BDE2B08381010F5F1F4F1801098D1A8D53
:102800000F5F1F4F098F1A8F0DC0F101BBE2B0831C
:1028100081010F5F1F4F1801098D1A8D0F5F1F4F28
:10282000098F1A8F7F926F925F924F923F922F92F1
:102830004AE050E00B891C89E9EFF2E009958B0131
:102840002F903F90005DF101008381010F5F1F4FCA
:102850001801098D1A8D0F5F1F4F098F1A8F3F9234
:102860002F924AE050E00B891C89E9EFF2E00995CC
:102870008C012F903F904F905F906F907F90005D04
:10288000F101008381010F5F1F4F1801098D1A8D1F
:102890000F5F1F4F098F1A8F0D851E8503FF1DC007
:1028A0002B853C8500E010E002171307B4F4F1011A
:1028B000B0E2B08381010F5F1F4F1801098D1A8D9F
:1028C0000F5F1F4F098F1A8F0B851C850150104019
:1028D0000B871C87B02FB12B51F709C90D851E85B9
:1028E00011FFBCC02B893C8900E010E020173107A4
:1028F0005CF40B891C89015010400801088519857A
:1029000000191109088719870F85188929893A89BB
:10291000ECE9F4E009950D8B1E8B2F8B388FB1E01D
:10292000BA870A850A30F1F00A85202F30E0220F9D
:10293000331F220F331F0BE11EE6F901E00FF11FD9
:1029400045915591659175910D891E892F89388D15
:10295000041715072607370708F404C00A850F5F18
:102960000A87DFCF0A84B0E01B2E0885198500197D
:102970001109088719870D891E892F89388DE9E982
:10298000F4E009953F922F92A801B9010F851889AB
:1029900029893A89EAECF4E009952F903F900F8F4E
:1029A00018A329A33AA37F926F925F924F923F920E
:1029B0002F922884ECEAF5E009952F903F904F90F4
:1029C0005F906F907F904F8D58A169A17AA13F923F
:1029D0002F92E3E2F3E0099540E050E060E07FE30E
:1029E000E0E2F5E009952F903F90ECE9F4E00995DD
:1029F0000D8B1E8B2F8B388F08851985B02FB12B2F
:102A000069F14AE050E060E070E00D891E892F898D
:102A1000388DEEEFF4E009958D019F01303029F4F7
:102A2000203019F4103009F40030C1F44AE050E0CD
:102A300060E070E00D891E892F89388DEEEFF4E09B
:102A400009958B019C010D8B1E8B2F8B388F088570
:102A500019850150104008871987CECF2885398500
:102A60000CE010E0021713079CF03F922F9228848D
:102A7000E7E5F7E009954F85588969897A89E0E2A9
:102A8000F5E009952F903F900F87188B298B3A8B93
:102A90003F922F920F85188929893A8940E050E0AA
:102AA00060E070E0E8E7F3E00995002800E009F055
:102AB00001E02F903F90002309F476C00F8518891C
:102AC00029893A89ECE9F4E00995303029F420307D
:102AD00019F4103009F4003009F066C02B893C89E4
:102AE00001E010E0021713070CF05EC07F926F92B6
:102AF0005F924F923F922F922B88ECEAF5E0099576
:102B0000A801B9010F85188929893A89E0ECF4E018
:102B100009952F903F904F905F906F907F903F92DC
:102B20002F924FE550E769E870E4E3E1F8E009959A
:102B30000028B0E009F0B1E00B2F2F903F90002368
:102B400039F00B891C89095010400B8B1C8B06C077
:102B50000B891C89085010400B8B1C8B7F926F9245
:102B60005F924F923F922F922B88ECEAF5E0099505
:102B7000A801B9010F85188929893A89E0ECF4E0A8
:102B800009952F903F904F905F906F907F90ECE968
:102B9000F4E009950D8B1E8B2F8B388FB0E0BF872B
:102BA000B88BB98BBA8B26C00F85188929893A89C9
:102BB000ECE9F4E009950D8B1E8B2F8B388F0D8976
:102BC0001E892F89388DE9E9F4E009953F922F920B
:102BD000A801B9010F85188929893A89EAECF4E03E
:102BE00009952F903F900F87188B298B3A8BB0E077
:102BF000BB8BBC8BB1E0BA870A850A30F1F00A853D
:102C0000202F30E0220F331F220F331F0BE11EE66F
:102C1000F901E00FF11F45915591659175910D896D
:102C20001E892F89388D041715072607370708F4E2
:102C300004C00A850F5F0A87DFCF488559850A855A
:102C4000202F30E0240F351F0B891C89020F131F22
:102C500008010B851C85001911090B871C870D8540
:102C60001E8513FD06C008851985B02FB12B09F408
:102C700006C00B851C85015010400B871C870D85F5
:102C80001E8503701070B02FB12B31F00B851C85A1
:102C9000015010400B871C870D851E8502FF48C020
:102CA0000D851E8501FF17C00D851E8500FF03C021
:102CB000BDE2BA8302C0BBE2BA830A81F10100839C
:102CC00081010F5F1F4F1801098D1A8D0F5F1F4F74
:102CD000098F1A8F11C00D851E8500FF0DC0F101EF
:102CE000B0E2B08381010F5F1F4F1801098D1A8D6B
:102CF0000F5F1F4F098F1A8F2B853C8500E010E076
:102D000002171307A4F4F101B0E3B08381010F5F50
:102D10001F4F1801098D1A8D0F5F1F4F098F1A8FD2
:102D20000B851C85015010400B871C87E5CF4BC0DD
:102D30000D851E8503FD1BC02B853C8500E010E042
:102D400002171307A4F4F101B0E2B08381010F5F11
:102D50001F4F1801098D1A8D0F5F1F4F098F1A8F92
:102D60000B851C85015010400B871C87E5CF0D8516
:102D70001E8501FF17C00D851E8500FF03C0BDE243
:102D8000BB8302C0BBE2BB830B81F10100838101E5
:102D90000F5F1F4F1801098D1A8D0F5F1F4F098F8D
:102DA0001A8F11C00D851E8500FF0DC0F101B0E224
:102DB000B08381010F5F1F4F1801098D1A8D0F5FBE
:102DC0001F4F098F1A8F1A850A8501500A87112310
:102DD00081F10A85202F30E0220F331F220F331F8D
:102DE0000BE11EE6F901E00FF11F45915591659148
:102DF00075910D891E892F89388DEEEFF4E00995C4
:102E00008B019C014AE050E060E070E0EEEFF4E0FE
:102E100009958D019F01005DF101008381010F5F24
:102E20001F4F1801098D1A8D0F5F1F4F098F1A8FC1
:102E3000CACF2B893C8900E010E002171307A4F4E5
:102E4000F101B0E3B08381010F5F1F4F1801098DBD
:102E50001A8D0F5F1F4F098F1A8F0B891C89015024
:102E600010400B8B1C8BE5CF2885398508E010E0DE
:102E7000021713071CF4B8E0BA8702C008850A8756
:102E80000A84B0E01B2E08851985001911090887EE
:102E900019870A85002329F40D851E8513FD01C0BD
:102EA0000DC0F101BEE2B08381010F5F1F4F180119
:102EB000098D1A8D0F5F1F4F098F1A8F7F926F92A6
:102EC0005F924F923F922F922A84ECEAF5E00995A7
:102ED0002F903F904F905F906F907F903F922F92F6
:102EE0004F85588969897A89E3E2F3E009952F9043
:102EF0003F90ECE9F4E009950D8B1E8B2F8B388FFA
:102F00000A85002391F10A8501500A87202F30E0BD
:102F1000220F331F220F331F0BE11EE6F901E00FD2
:102F2000F11F45915591659175910D891E892F89E4
:102F3000388DEEEFF4E009958B019C014AE050E0FA
:102F400060E070E0EEEFF4E009958D019F01005D17
:102F5000F101008381010F5F1F4F1801098D1A8D48
:102F60000F5F1F4F098F1A8FCBCF08851985B02FA0
:102F7000B12BA1F0F101B0E3B08381010F5F1F4FCE
:102F80001801098D1A8D0F5F1F4F098F1A8F088541
:102F900019850150104008871987E7CF0D851E85D8
:102FA00003FF1DC02B853C8500E010E002171307CE
:102FB000B4F4F101B0E2B08381010F5F1F4F18013B
:102FC000098D1A8D0F5F1F4F098F1A8F0B851C8576
:102FD000015010400B871C87B02FB12B51F7E7E74A
:102FE000FDE009940D851E85007C1070103009F4F9
:102FF000003009F052C00D851E8504FF15C0F30195
:1030000001911191F80101911191219131910D8B53
:103010001E8B2F8B388FF301019111910C5F1F4F85
:10302000F3010193119316C0F30101911191F8017D
:103030000191119120E017FD2FEF322F0D8B1E8B88
:103040002F8B388FF301019111910E5F1F4FF30108
:10305000019311934D895E896F89788D00E010E0AE
:1030600020E030E04017510762077307ACF40D858C
:103070001E8503600D871E870D881E8800E010E006
:10308000001911090F88188C20E030E0200931095F
:103090000D8B1E8B2F8B388F2CC00D851E8504FF4A
:1030A00015C0F30101911191F80101911191219144
:1030B00031910D8B1E8B2F8B388FF3010191119164
:1030C0000C5F1F4FF3010193119313C0F3010191A2
:1030D0001191F801019111910D8B1E8BB0E0BF8B06
:1030E000B88FF301019111910E5F1F4FF30101930E
:1030F000119308851985103009F4003091F40D8979
:103100001E892F89388D303029F4203019F4103081
:1031100009F4003031F4088519850F5F1F4F0887C7
:1031200019870D85007C802F6CC0B1E0BA870A85B5
:103130000A30F1F00A85202F30E0220F331F220FD2
:10314000331F0BE11EE6F901E00FF11F4591559188
:10315000659175910D891E892F89388D0417150782
:103160002607370708F404C00A850F5F0A87DFCFF8
:1031700053C0B1E0BA870A850830F1F00A85202FE4
:1031800030E0220F331F220F331F03E41EE6F90144
:10319000E00FF11F45915591659175910D891E893B
:1031A0002F89388D041715072607370708F404C040
:1031B0000A850F5F0A87DFCF2FC0B1E0BA870A8583
:1031C0000C30F1F00A85202F30E0220F331F220F40
:1031D000331F0BEE1DE6F901E00FF11F45915591EC
:1031E000659175910D891E892F89388D04171507F2
:1031F0002607370708F404C00A850F5F0A87DFCF68
:103200000BC0803009F491CF803C09F48ECF803818
:1032100009F4AFCF803489F20A852885398510E01A
:10322000021713071CF408850A870BC01885298527
:103230000A851017B0E02B0724F40A850887B0E050
:10324000B9870B851C85B02FB12B69F00D851E85C4
:1032500003701070B02FB12B31F00B851C8501501D
:1032600010400B871C872B853C8508851985021724
:1032700013074CF4088419840B851C850019110967
:103280000B871C8703C0B0E0BB87BC870D851E85FC
:10329000047C1870183009F4003461F40B851C8527
:1032A000B02FB12B31F00B851C85015010400B87DE
:1032B0001C8719C00D851E85007C1870183009F414
:1032C000003889F42B853C8502E010E002171307D3
:1032D0003CF40B851C85025010400B871C8703C0F3
:1032E000B0E0BB87BC870D851E8502FF74C00D85CD
:1032F0001E8501FF17C00D851E8500FF03C0BDE2BE
:10330000BC8302C0BBE2BC830C81F101008381015C
:103310000F5F1F4F1801098D1A8D0F5F1F4F098F07
:103320001A8F3DC00D851E8500FF0EC0F101B0E271
:10333000B08381010F5F1F4F1801098D1A8D0F5F38
:103340001F4F098F1A8F2BC00D851E85007C1870AA
:10335000183009F4003819F5F101B0E3B0838101A8
:103360000F5F1F4F1801098D1A8D0F5F1F4F098FB7
:103370001A8F0D851E8505FF03C0B8E5BD8302C009
:10338000B8E7BD830D81F101008381010F5F1F4FFD
:103390001801098D1A8D0F5F1F4F098F1A8F0B852A
:1033A0001C85B02FB12BB1F0F101B0E3B0838101E6
:1033B0000F5F1F4F1801098D1A8D0F5F1F4F098F67
:1033C0001A8F0B851C85015010400B871C87B02F6E
:1033D000B12B51F78CC00B851C85B02FB12BD1F0D0
:1033E0000D851E8503FD16C0F101B0E2B083810199
:1033F0000F5F1F4F1801098D1A8D0F5F1F4F098F27
:103400001A8F0B851C85015010400B871C87B02F2D
:10341000B12B51F70D851E8501FF17C00D851E8547
:1034200000FF03C0BDE2BE8302C0BBE2BE830E81CB
:10343000F101008381010F5F1F4F1801098D1A8D63
:103440000F5F1F4F098F1A8F11C00D851E8500FF5A
:103450000DC0F101B0E2B08381010F5F1F4F180171
:10346000098D1A8D0F5F1F4F098F1A8F0D851E85CD
:10347000007C1870183009F4003471F4F101B0E3E5
:10348000B08381010F5F1F4F1801098D1A8D0F5FE7
:103490001F4F098F1A8F2BC00D851E85007C187059
:1034A000183009F4003819F5F101B0E3B083810157
:1034B0000F5F1F4F1801098D1A8D0F5F1F4F098F66
:1034C0001A8F0D851E8505FF03C0B8E5BF8302C0B6
:1034D000B8E7BF830F81F101008381010F5F1F4FA8
:1034E0001801098D1A8D0F5F1F4F098F1A8F2885BC
:1034F00039850A8510E00217130774F4F101B0E36F
:10350000B08381010F5F1F4F1801098D1A8D0F5F66
:103510001F4F098F1A8FEBCF2885398508851985AC
:103520000150104008871987B22FB32B09F4B2C09D
:103530000D85007C0F8F94C0088519859801220F96
:10354000331F220F331F0BE11EE6F901E00FF11FBD
:1035500045915591659175910D891E892F89388DF9
:10356000EEEFF4E009958B019C014AE050E060E049
:1035700070E0EEEFF4E009958D019F01005D0A8790
:103580007BC00D851E8505FF27C00885198598011C
:10359000220F331F220F331F03E41EE6F901E00F51
:1035A000F11F45915591659175910D891E892F895E
:1035B000388DEEEFF4E009958B019C01A801B9016B
:1035C0004F7050706070707003E61EE6F801E40FF3
:1035D000F51F04910A8726C0088519859801220FD6
:1035E000331F220F331F03E41EE6F901E00FF11F22
:1035F00045915591659175910D891E892F89388D59
:10360000EEEFF4E009958B019C01A801B9014F7020
:1036100050706070707004E71EE6F801E40FF51F4B
:1036200004910A8729C0088519859801220F331F44
:10363000220F331F0BEE1DE6F901E00FF11F45913C
:103640005591659175910D891E892F89388DEEEF01
:10365000F4E009958B019C010770005D0A870CC09E
:103660000F8D003009F468CF003C09F465CF0038B5
:1036700009F487CF0034B9F20A85F1010083810192
:103680000F5F1F4F1801098D1A8D0F5F1F4F098F94
:103690001A8F42CF0D851E8503FF1DC02B853C85EB
:1036A00000E010E002171307B4F4F101B0E2B083B8
:1036B00081010F5F1F4F1801098D1A8D0F5F1F4F7A
:1036C000098F1A8F0B851C85015010400B871C87B2
:1036D000B02FB12B51F7E7E7FDE00994098D1A8D62
:1036E000A296CDBFDEBFDF91CF9108952F923F927A
:1036F0004F925F926F927F9225E11BE40FEB0A9548
:10370000F1F71A95E1F72A95D1F70000B0E14B2EB9
:10371000B1E03B2EB1E02B2EE5E9FDE20995B9B110
:10372000B2FF75C0B0E44B2EB2E05B2E20903D019D
:1037300030903E01EFEBF3E00995B0E14B2EB1E0A4
:103740005B2EB1E03B2EB1E02B2EE3E7F6E20995CC
:10375000B0E44B2EB2E05B2EB8E03B2EB1E02B2E56
:10376000E3E7F6E20995B6B1B0FF01C050C0B9B1C8
:10377000B0FD04C0B9B1B1FD01C048C0B9B1B0FFDE
:1037800013C025E01FE002EF0A95F1F71A95E1F763
:103790002A95D1F700913D0110913E010F5F1F4F17
:1037A00000933D0110933E01B9B1B1FF13C025E074
:1037B0001FE002EF0A95F1F71A95E1F72A95D1F784
:1037C00000913D0110913E010150104000933D01D8
:1037D00010933E0120913D0130913E0108E512E039
:1037E0000217130728F4B0E0B0933D01B0933E01F7
:1037F00000913D0110913E01103009F4003028F491
:10380000B0E0B0933D01B0933E01B1CF88CFB2E0BC
:103810006B2EB0E07B2EBDE34B2EB1E05B2EB5E40A
:103820002B2EB0E03B2EE4EDF4E0099525E11BE4FE
:103830000FEB0A95F1F71A95E1F72A95D1F70000F9
:10384000B0E14B2EB1E03B2EB1E02B2EE5E9FDE2DD
:103850000995B9B1B2FF75C0B0E44B2EB2E05B2E52
:1038600020903B0130903C01EFEBF3E00995B4E28E
:103870004B2EB1E05B2EB1E03B2EB1E02B2EE3E707
:10388000F6E20995B0E44B2EB2E05B2EB8E03B2E99
:10389000B1E02B2EE3E7F6E20995B6B1B0FF01C027
:1038A00050C0B9B1B0FD04C0B9B1B1FD01C048C04C
:1038B000B9B1B0FF13C025E01FE002EF0A95F1F7A0
:1038C0001A95E1F72A95D1F700913B0110913C013F
:1038D0000F5F1F4F00933B0110933C01B9B1B1FF43
:1038E00013C025E01FE002EF0A95F1F71A95E1F702
:1038F0002A95D1F700913B0110913C0101501040F5
:1039000000933B0110933C0120913B0130913C011D
:1039100008E512E00217130728F4B0E0B0933B016A
:10392000B0933C0100913B0110913C01103009F42F
:10393000003028F4B0E0B0933B01B0933C01B1CF2C
:1039400088CFB2E06B2EB0E07B2EBBE34B2EB1E014
:103950005B2EB7E42B2EB0E03B2EE4EDF4E00995AE
:10396000B1E02B2EE0EFF9E009957F906F905F902A
:103970004F903F902F900895B2E5B0935602BAE071
:10398000B0935702B7E8B0937A00B0E0B0937C00F0
:1039900008952F923F924F925F92B0E14B2EB1E08B
:1039A0003B2EB1E02B2EE5E9FDE20995B0E14B2E6F
:1039B000B1E03B2EB2E02B2EE5E9FDE2099525E1D1
:1039C0001BE40FEB0A95F1F71A95E1F72A95D1F769
:1039D0000000B9B1B2FF72C0B0E43B2EB2E04B2E92
:1039E00020902502EAE2F5E00995B2EF4B2EB1E016
:1039F0005B2EBCE03B2EB1E02B2EE3E7F6E209950F
:103A0000BEE94B2EB1E05B2EB1E03B2EB1E02B2E98
:103A1000E3E7F6E20995B0E44B2EB2E05B2EBDE0A1
:103A20003B2EB1E02B2EE3E7F6E20995B6B1B0FFED
:103A300001C044C0B9B1B0FD04C0B9B1B1FD01C00D
:103A40003CC0B9B1B0FF0FC029E01EE105EE0A95F8
:103A5000F1F71A95E1F72A95D1F7000000912502B8
:103A60000F5F00932502B9B1B1FF0FC029E01EE13D
:103A700005EE0A95F1F71A95E1F72A95D1F70000BE
:103A800000912502015000932502109125020BE3BD
:103A9000011718F4B0E0B093250200912502003020
:103AA00018F4B0E0B0932502B0E0B0934301B0E069
:103AB000B0934401B0934501BDCF8BCF25E11BE40A
:103AC0000FEB0A95F1F71A95E1F72A95D1F7000067
:103AD000B9B1B2FF5CC0B0E43B2EB2E04B2E2090F7
:103AE0002602EAE2F5E00995B0E44B2EB2E05B2E47
:103AF000B7E03B2EB1E02B2EE3E7F6E20995B6B135
:103B0000B0FF01C044C0B9B1B0FD04C0B9B1B1FD4E
:103B100001C03CC0B9B1B0FF0FC029E01EE105EE05
:103B20000A95F1F71A95E1F72A95D1F7000000916F
:103B300026020F5F00932602B9B1B1FF0FC029E042
:103B40001EE105EE0A95F1F71A95E1F72A95D1F7EE
:103B500000000091260201500093260210912602D7
:103B600007E1011718F4B0E0B09326020091260295
:103B7000003018F4B0E0B0932602B0E0B0934301F7
:103B8000B0E0B0934401B0934501BDCFA1CF4090C8
:103B90002602B0E22B2EB0E03B2EE9E6F5E00995D7
:103BA00040902502B1E22B2EB0E03B2EE9E6F5E095
:103BB00009955F904F903F902F9008952F923F92DC
:103BC0004F925F92B0E14B2EB1E03B2EB1E02B2E35
:103BD000E5E9FDE2099525E01FE002EF0A95F1F71E
:103BE0001A95E1F72A95D1F7B0E14B2EB1E03B2EC3
:103BF000B2E02B2EE5E9FDE20995B9B1B2FF72C042
:103C0000B0E43B2EB2E04B2E20903402EAE2F5E025
:103C10000995BBE74B2EB1E05B2EBCE03B2EB1E03B
:103C20002B2EE3E7F6E20995B3E74B2EB1E05B2ECE
:103C3000B1E03B2EB1E02B2EE3E7F6E20995B0E4CC
:103C40004B2EB2E05B2EBDE03B2EB1E02B2EE3E726
:103C5000F6E20995B6B1B0FF01C044C0B9B1B0FDFC
:103C600004C0B9B1B1FD01C03CC0B9B1B0FF0FC0D3
:103C700029E01EE105EE0A95F1F71A95E1F72A957C
:103C8000D1F70000009134020F5F00933402B9B104
:103C9000B1FF0FC029E01EE105EE0A95F1F71A9574
:103CA000E1F72A95D1F7000000913402015000930A
:103CB0003402109134020BE3011718F4B0E0B09312
:103CC000340200913402003018F4B0E0B0933402B2
:103CD000B0E0B0934301B0E0B0934401B09345012C
:103CE000BDCF8BCF25E11BE40FEB0A95F1F71A95B9
:103CF000E1F72A95D1F70000B9B1B2FF5AC0B0E49C
:103D00003B2EB2E04B2E20902802EAE2F5E0099526
:103D1000B0E44B2EB2E05B2EB7E03B2EB1E02B2E91
:103D2000E2D7B6B1B0FF01C044C0B9B1B0FD04C024
:103D3000B9B1B1FD01C03CC0B9B1B0FF0FC029E0BD
:103D40001EE105EE0A95F1F71A95E1F72A95D1F7EC
:103D50000000009128020F5F00932802B9B1B1FF63
:103D60000FC029E01EE105EE0A95F1F71A95E1F77B
:103D70002A95D1F7000000912802015000932802F3
:103D80001091280207E1011718F4B0E0B09328025F
:103D900000912802003018F4B0E0B0932802B0E09F
:103DA000B0934301B0E0B0934401B0934501BDCF5F
:103DB000A3CF40902802B8E12B2EB0E03B2EE9E6DD
:103DC000F5E0099540903402B9E12B2EB0E03B2E8E
:103DD000E9E6F5E009955F904F903F902F900895A8
:103DE0002F923F924F925F92B0E14B2EB1E03B2E6B
:103DF000B1E02B2EE5E9FDE20995B0E14B2EB1E0F3
:103E00003B2EB2E02B2EE5E9FDE2099525E11BE40E
:103E10000FEB0A95F1F71A95E1F72A95D1F7000013
:103E2000B9B1B2FF6CC0B0E43B2EB2E04B2E209093
:103E30003802EAE2F5E00995BDEE4B2EB1E05B2ECB
:103E4000BCE03B2EB1E02B2E4ED7B5EF4B2EB1E0B0
:103E50005B2EB1E03B2EB1E02B2E45D7B0E44B2ECC
:103E6000B2E05B2EBDE03B2EB1E02B2E3CD7B6B1CD
:103E7000B0FF01C044C0B9B1B0FD04C0B9B1B1FDDB
:103E800001C03CC0B9B1B0FF0FC029E01EE105EE92
:103E90000A95F1F71A95E1F72A95D1F700000091FC
:103EA00038020F5F00933802B9B1B1FF0FC029E0AB
:103EB0001EE105EE0A95F1F71A95E1F72A95D1F77B
:103EC000000000913802015000933802109138022E
:103ED0000BE3011718F4B0E0B093380200913802F8
:103EE000003018F4B0E0B0933802B0E0B0932F0285
:103EF000B0933002B0E0B0932702BDCF91CF25E15F
:103F00001BE40FEB0A95F1F71A95E1F72A95D1F723
:103F10000000B9B1B2FF5AC0B0E43B2EB2E04B2E64
:103F200020903702EAE2F5E00995B0E44B2EB2E0CA
:103F30005B2EB7E03B2EB1E02B2ED5D6B6B1B0FF4D
:103F400001C044C0B9B1B0FD04C0B9B1B1FD01C0F8
:103F50003CC0B9B1B0FF0FC029E01EE105EE0A95E3
:103F6000F1F71A95E1F72A95D1F700000091370291
:103F70000F5F00933702B9B1B1FF0FC029E01EE116
:103F800005EE0A95F1F71A95E1F72A95D1F70000A9
:103F9000009137020150009337021091370207E178
:103FA000011718F4B0E0B0933702009137020030E7
:103FB00018F4B0E0B0933702B0E0B0932F02B093A2
:103FC0003002B0E0B0932702BDCFA3CF40903702BC
:103FD000B3E02B2EB0E03B2EE9E6F5E009954090EA
:103FE0003802B4E02B2EB0E03B2EE9E6F5E009956F
:103FF0005F904F903F902F9008952F923F924F9255
:104000005F926F927F92B0E14B2EB1E03B2EB1E018
:104010002B2EE5E9FDE2099525E11BE40FEB0A955E
:10402000F1F71A95E1F72A95D1F70000B0E14B2E90
:10403000B1E03B2EB2E02B2EE5E9FDE20995B9B1E6
:10404000B2FFBDC0BCE54B2EB1E05B2EB1E03B2E14
:10405000B1E02B2E48D600915801109159012091C2
:104060005A0130915B013F932F931F930F93BEE64C
:10407000BF93B5E8BF93B2E0BF93B0E4BF93C7D29C
:10408000ADB7BEB71896ADBFBEBFB0E44B2EB2E021
:104090005B2EBAE03B2EB1E02B2E25D6B6B1B0FF99
:1040A00001C08DC0B9B1B0FD04C0B9B1B1FD01C04E
:1040B00085C0B9B1B0FF21C029E01EE105EE0A9527
:1040C000F1F71A95E1F72A95D1F700000091580110
:1040D0001091590120915A0130915B014DEC5CEC3B
:1040E0006CEC7DE3E0E2F5E0099500935801109354
:1040F000590120935A0130935B01B9B1B1FF21C03E
:1041000029E01EE105EE0A95F1F71A95E1F72A95E7
:10411000D1F700004DEC5CEC6CEC7DE300915801B4
:104120001091590120915A0130915B01EAECF4E0C1
:104130000995009358011093590120935A01309327
:104140005B0140E050E062E872E400915801109198
:10415000590120915A0130915B01E9E8F4E0099599
:10416000002800E009F001E0002349F0B0E0B0933E
:104170005801B0935901B0935A01B0935B0140E0EC
:1041800050E060E070E000915801109159012091D9
:104190005A0130915B01E3E1F8E00995002800E065
:1041A00009F001E0002349F0B0E0B0935801B0936A
:1041B0005901B0935A01B0935B0174CF40CFB4E082
:1041C0006B2EB0E07B2EB8E54B2EB1E05B2EB0E35A
:1041D0002B2EB0E03B2EE4EDF4E0099525E11BE445
:1041E0000FEB0A95F1F71A95E1F72A95D1F7000040
:1041F000B9B1B2FFBDC0B8E44B2EB1E05B2EB1E067
:104200003B2EB1E02B2E6FD500915401109155013A
:1042100020915601309157013F932F931F930F9395
:10422000BEE6BF93B3E9BF93B2E0BF93B0E4BF93E0
:10423000EED1ADB7BEB71896ADBFBEBFB0E44B2E42
:10424000B2E05B2EBAE03B2EB1E02B2E4CD5B6B1DE
:10425000B0FF01C08DC0B9B1B0FD04C0B9B1B1FDAE
:1042600001C085C0B9B1B0FF21C029E01EE105EE53
:104270000A95F1F71A95E1F72A95D1F70000009118
:1042800054011091550120915601309157014DEC88
:104290005CEC6CEC7DE3E0E2F5E009950093540101
:1042A000109355012093560130935701B9B1B1FFD6
:1042B00021C029E01EE105EE0A95F1F71A95E1F714
:1042C0002A95D1F700004DEC5CEC6CEC7DE300919D
:1042D0005401109155012091560130915701EAEC9B
:1042E000F4E0099500935401109355012093560171
:1042F0003093570140E050E062E872E400915401CD
:10430000109155012091560130915701E9E8F4E0F0
:104310000995002800E009F001E0002349F0B0E031
:10432000B0935401B0935501B0935601B093570127
:1043300040E050E060E070E00091540110915501C0
:104340002091560130915701E3E1F8E009950028EA
:1043500000E009F001E0002349F0B0E0B09354011F
:10436000B0935501B0935601B093570174CF40CF2D
:10437000B4E06B2EB0E07B2EB4E54B2EB1E05B2EAB
:10438000B1E52B2EB0E03B2EE4EDF4E00995B1E071
:104390002B2EE0EFF9E009957F906F905F904F90A2
:1043A0003F902F9008952F923F924F925F92B0E1ED
:1043B0004B2EB1E03B2EB1E02B2EE5E9FDE2099555
:1043C00025E01FE002EF0A95F1F71A95E1F72A952B
:1043D000D1F7B0E14B2EB1E03B2EB2E02B2EE5E958
:1043E000FDE20995B9B1B2FF6CC0B0E43B2EB2E07A
:1043F0004B2E20901D02EAE2F5E00995B6E84B2E1F
:10440000B1E05B2EBCE03B2EB1E02B2E6CD4BEE7BE
:104410004B2EB1E05B2EB1E03B2EB1E02B2E63D4EE
:10442000B0E44B2EB2E05B2EBDE03B2EB1E02B2E74
:104430005AD4B6B1B0FF01C044C0B9B1B0FD04C098
:10444000B9B1B1FD01C03CC0B9B1B0FF0FC029E0A6
:104450001EE105EE0A95F1F71A95E1F72A95D1F7D5
:10446000000000911D020F5F00931D02B9B1B1FF62
:104470000FC029E01EE105EE0A95F1F71A95E1F764
:104480002A95D1F7000000911D02015000931D02F2
:1044900010911D020BE3011718F4B0E0B0931D0258
:1044A00000911D02003018F4B0E0B0931D02B0E09E
:1044B000B0932F02B0933002B0E0B0932702BDCF8B
:1044C00091CF25E11BE40FEB0A95F1F71A95E1F77F
:1044D0002A95D1F70000B9B1B2FF5AC0B0E43B2E23
:1044E000B2E04B2E20903302EAE2F5E00995B0E409
:1044F0004B2EB2E05B2EB7E03B2EB1E02B2EF3D378
:10450000B6B1B0FF01C044C0B9B1B0FD04C0B9B18B
:10451000B1FD01C03CC0B9B1B0FF0FC029E01EE140
:1045200005EE0A95F1F71A95E1F72A95D1F7000003
:10453000009133020F5F00933302B9B1B1FF0FC096
:1045400029E01EE105EE0A95F1F71A95E1F72A95A3
:10455000D1F7000000913302015000933302109113
:10456000330207E1011718F4B0E0B0933302009171
:104570003302003018F4B0E0B0933302B0E0B093EF
:104580002702B0E0B0932F02B0933002BDCFA3CF8B
:104590004090330222243324E9E6F5E00995409067
:1045A0001D02B1E02B2EB0E03B2EE9E6F5E00995C7
:1045B0005F904F903F902F900895B0915502BE7F2D
:1045C000B0935502E0EFF9E00995B0915502B16062
:1045D000B09355020895BAB1B064BAB9BAB1B0682F
:1045E000BAB9BAB1BB7FBAB9BAB1BD7FBAB9BAB1BB
:1045F000BE7FBAB9BAB1B77FBAB9B7B1B460B7B90B
:10460000B7B1BE7FB7B9BAB1B062BAB90895CF93A6
:10461000DF93CDB7DEB72297CDBFDEBF21962F92B5
:104620003F924F925F926F927F922E813F81FE0167
:104630008E01085F1F4F0E5F1F4F019311938E0174
:104640003F932F933801488459841901ECE6FDE02B
:1046500009952F913F91A801F801E20FF31FB0E0F7
:10466000B0838A017F906F905F904F903F902F9022
:104670002196CDBFDEBFDF91CF9108952F923F925B
:104680004F925F926F927F92B1E02B1609F04AC170
:104690000091E4010C3069F5B0E0B0935801B0939B
:1046A0005901B0E4B0935A01B1E4B0935B01B0E0BA
:1046B000B0932A02B0932B02B8E5B0932C02B1E478
:1046C000B0932D02B0E0B0935401B0935501B8E41B
:1046D000B0935601B1E4B0935701BDECB0933F01E4
:1046E000BCECB0934001BCE5B0934101B1E4B093A0
:1046F00042010091E401083161F5B0E0B093580146
:10470000B0935901B4ECB0935A01B1E4B0935B019A
:10471000B0E0B0932A02B0932B02B4EDB0932C0218
:10472000B1E4B0932D02B0E0B0935401B0935501C1
:10473000BCECB0935601B1E4B0935701B0E0B09334
:104740003F01B0934001BCEDB0934101B1E4B0939F
:1047500042010091E401003361F5B0E0B0935801EB
:10476000B0935901B4E4B0935A01B2E4B0935B0141
:10477000B0E0B0932A02B0932B02B0E5B0932C02C4
:10478000B2E4B0932D02B0E0B0935401B093550160
:10479000B8E4B0935601B2E4B0935701B0E0B093DF
:1047A0003F01B0934001B8E5B0934101B2E4B0934A
:1047B0004201B4EBB0933D01B0E0B0933E01B0EFE5
:1047C000B0933B01B0E0B0933C01B8E04B2E222403
:1047D0003324E9E6F5E009954424B1E02B2EB0E05E
:1047E0003B2EE9E6F5E00995B1E14B2EB3E02B2E27
:1047F000B0E03B2EE9E6F5E009954424B4E02B2E29
:10480000B0E03B2EE9E6F5E00995B9E04B2EB8E1C2
:104810002B2EB0E03B2EE9E6F5E009954424B9E102
:104820002B2EB0E03B2EE9E6F5E00995B1E14B2EE9
:10483000B0E22B2EB0E03B2EE9E6F5E009954424EA
:10484000B1E22B2EB0E03B2EE9E6F5E009954424D9
:10485000B9E92B2EB0E03B2EE9E6F5E00995B1E091
:104860004B2EB2E02B2EB1E03B2EE9E6F5E00995A8
:10487000B4E06B2EB0E07B2EB8E54B2EB1E05B2EA2
:10488000B0E32B2EB0E03B2EE4EDF4E00995B4E06C
:104890006B2EB0E07B2EBAE24B2EB2E05B2EB0E482
:1048A0002B2EB0E03B2EE4EDF4E00995B2E06B2E48
:1048B000B0E07B2EBDE34B2EB1E05B2EB5E42B2E9A
:1048C000B0E03B2EE4EDF4E00995B2E06B2EB0E0F1
:1048D0007B2EBBE34B2EB1E05B2EB7E42B2EB0E07A
:1048E0003B2EE4EDF4E00995B4E06B2EB0E07B2EB6
:1048F000B4E54B2EB1E05B2EB1E52B2EB0E03B2EA4
:10490000E4EDF4E00995B4E06B2EB0E07B2EBFE35C
:104910004B2EB1E05B2EB5E52B2EB0E03B2EE4ED47
:10492000F4E00995B4E04B2EB2E12B2EB0E03B2E23
:10493000E9E6F5E00995BAEA4B2EB3E12B2EB0E09B
:104940003B2EE9E6F5E009954424B5E12B2EB0E0D5
:104950003B2EE9E6F5E009957F906F905F904F90D0
:104960003F902F9008952F923F924F925F92B9B14E
:10497000B3FD0DC000913F02003049F4BEE04B2E64
:10498000B2E05B2EB7E03B2EB2E02B2EACD15F90B5
:104990004F903F902F9008952F924F923F92222454
:1049A000E4EEF2E0099510916C02012F0F70009374
:1049B0006002012F007F009361020695069506951F
:1049C000069500936102B1E02B2EE4EEF2E009952A
:1049D00010916C02012F0F7000935E02012F007F77
:1049E00000935B02069506950695069500935B027B
:1049F000B2E02B2EE4EEF2E009953F904F9010913B
:104A00006C02012F0F7000935C02012F007F009356
:104A10005D02069506950695069500935D02232C8A
:104A2000E4E7F4E009950F7000936202232CE4E7B9
:104A3000F4E00995007F0695069506950695009386
:104A40006402242CE4E7F4E009950F7000936502FA
:104A5000242CE4E7F4E00995007F06950695069579
:104A600006950093660210915E0200916202101793
:104A7000A1F410915B0200916402101771F410917F
:104A80005C0200916502101741F410915D020091E3
:104A90006602101711F401E001C000E02F900895A4
:104AA0002F924F923F922224E4EEF2E0099510916A
:104AB0006C02012F0F7000936E02012F007F009394
:104AC0007302069506950695069500937302B1E06C
:104AD0002B2EE4EEF2E0099510916C02012F0F707D
:104AE00000937402012F007F0093750206950695CE
:104AF0000695069500937502B2E02B2EE4EEF2E0E7
:104B000009953F904F9010916C02012F0F70009308
:104B10007202012F007F00936F020695069506959D
:104B2000069500936F02232CE4E7F4E009950F70DB
:104B300000937002232CE4E7F4E00995007F0695CA
:104B400006950695069500937102242CE4E7F4E09F
:104B500009950F7000936702242CE4E7F4E00995AF
:104B6000007F069506950695069500935F021091C5
:104B70007402009170021017A1F410917502009157
:104B80007102101771F410917202009167021017F0
:104B900041F410916F0200915F02101711F401E0CF
:104BA00001C000E02F900895ECEBFCE10995E2E5EF
:104BB000FAE009950895EDEDF2E0099519F4002465
:104BC000039401C000240895002E112E222E332EAE
:104BD000042F152F262F372FE2E8F1E00995002347
:104BE0001CF00024039401C0002408952F923F92EA
:104BF0004F925F92B2E02B2EE4EEF2E00995109115
:104C00006C02012F0F7000936B02012F007F009345
:104C10006D02069506950695069500936D02BFE117
:104C20004B2EB2E05B2EB1E03B2EB1E02B2E5BD0E1
:104C300000916D02005D402EB6E03B2EB1E02B2EC0
:104C4000C8D000916B02005D202EB7DCBDE22B2E98
:104C5000B4DCB1E02B2EE4EEF2E0099510916C0289
:104C6000012F0F7000936B02012F007F00936D02E4
:104C7000069506950695069500936D02005D202E1B
:104C80009CDC00916B02005D202E97DCBDE22B2E98
:104C900094DC2224E4EEF2E0099510916C02012FDD
:104CA0000F7000936B02012F007F00936D02069539
:104CB00006950695069500936D02005D202E7DDC1D
:104CC00000916B02005D202E78DC25E01FE002EFF2
:104CD0000A95F1F71A95E1F72A95D1F75F904F9071
:104CE0003F902F9008952F920FC0B0E82B2E19C03F
:104CF000B0EC2B2E16C0B4E92B2E13C0B4ED2B2E26
:104D000010C0B0E82B2E0DC0B1E02B1671F3B2E04D
:104D10002B1671F3B3E02B1671F3B4E02B1671F37D
:104D2000F0CF032D0150020D202E202EE0EFF9E0F0
:104D30000995B0915502BE7FB093550210E0E12F66
:104D4000F0E0E40DF51D0081002379F0E12FF0E0A3
:104D5000E40DF51D00811F932F92202E2EDC2F9045
:104D60001F91012F0F5F102FEACFB0915502B16054
:104D7000B09355022F900895CF93DF93CDB7DEB750
:104D80002297CDBFDEBF2196288239820FB6BFB3EE
:104D9000B1FF01C0FCCFF8941C2F2D2FE12FF22F73
:104DA0003196008102BDE12FF22F008101BDBFB31A
:104DB000B160BFBB0FBE00B52196CDBFDEBFDF9196
:104DC000CF910895B0E3B093B900B4E0B093BC00C4
:104DD00008952F920FC0B0E82B2E19C0B0EC2B2EE7
:104DE00016C0B4E92B2E13C0B4ED2B2E10C0B0E8C2
:104DF0002B2E0DC0B1E02B1671F3B2E02B1671F320
:104E0000B3E02B1671F3B4E02B1671F3F0CF032D42
:104E10000150020D202EB0915502B160B0935502A1
:104E2000202EE0EFF9E00995B0915502BE7FB093D6
:104E30005502242CE0EFF9E00995B0915502B160DC
:104E4000B09355022F9008952092960130929701C9
:104E500040929801509299016092590270925A02C0
:104E60000895B2E5B0935602BAE0B0935702B7E89E
:104E7000B0937A0020927C0008952F923F924F9237
:104E80005F92B9B1B2FD68C0B6B1B0FD65C0B1E026
:104E9000B0937201BBB1B062BBB9BFB7BF77BFBF40
:104EA000B1E02B2EE0EFF9E00995B4E64B2EB1E02E
:104EB0005B2EB1E03B2EB1E02B2E15DF25E11BE48C
:104EC0000FEB0A95F1F71A95E1F72A95D1F7000053
:104ED000B9B1B2FF3EC000917201013009F039C092
:104EE00062DAB6B1B0FF01C034C0E0EFFEE109956F
:104EF000B6B1B0FF01C02DC0EEEDFDE10995B6B130
:104F0000B0FF01C026C0E9ECFCE10995B6B1B0FFE5
:104F100001C01FC072D8B6B1B0FF01C01AC0EDE227
:104F2000F8E00995B6B1B0FF01C013C0E6E7FBE1B8
:104F30000995B6B1B0FF01C00CC0ECE6FAE00995E6
:104F4000B6B1B0FF01C005C0B1E02B2EE0EFF9E033
:104F50000995BFB7B068BFBF5F904F903F902F904B
:104F60000895B091B000B260B093B000B091B100BC
:104F7000B160B093B100B091B100B260B093B10034
:104F8000B091B100B460B093B100BFB7B068BFBF1B
:104F9000BFEFB093B300B0917000B260B0937000F7
:104FA00008952F923F924F925F920091230100301B
:104FB00041F4B0E14B2EBEE03B2EB1E02B2EB5D537
:104FC00009C0B4ED4B2EB1E05B2EB0E13B2EB1E059
:104FD0002B2E89DE00911E02003011F407DE09C07D
:104FE000B7EC4B2EB1E05B2EB1E03B2EB1E02B2EA7
:104FF0007ADE94D0B8DC5F904F903F902F90089568
:1050000000911E02003009F088C0EFE7F3E0099537
:1050100010913302011750F4EFE7F3E00995109176
:105020003702011718F4B0E0B0932702EFE7F3E07E
:10503000099510913302101750F4EFE7F3E009954A
:1050400010913702101718F4B0E0B0932702EFE781
:10505000F3E0099510913302011751F4EFE9F3E001
:10506000099510911D02011718F4B0E0B0932702C2
:10507000EFE7F3E0099510913702011751F4EFE9DA
:10508000F3E0099510913802101718F4B0E0B093CE
:105090002702EFE7F3E0099510912802011750F479
:1050A000EFE7F3E0099510912602011718F4B0E03C
:1050B000B0934301EFE7F3E0099510912802101730
:1050C00050F4EFE7F3E0099510912602101718F459
:1050D000B0E0B0934301EFE7F3E0099510912802A7
:1050E000011751F4EFE9F3E009951091340201172B
:1050F00018F4B0E0B0934301EFE7F3E009951091A5
:105100002602011751F4EFE9F3E009951091250209
:10511000101718F4B0E0B09343010895CF93DF93D4
:10512000CDB7DEB7E197CDBFDEBF21962F923F927C
:105130004F925F92B0E0B8A7B9A7BAA7BBA7B1E0FA
:105140002B2E32DD0093390210933A0220E0322FE9
:10515000E9E9F4E0099540E050E060EA70E4E3E258
:10516000F3E0099540E050E060E874E4E0ECF4E03E
:10517000099500933B0210933C0220933D0230932B
:105180003E02B0E0BCA70CA50A3008F047C09E0163
:105190000CA510E0000F111F000F111F020F131FAD
:1051A0000FA718AB00E010E028EA31E440913B0281
:1051B00050913C0260913D0270913E02E3E2F3E0C7
:1051C00009954FA558A9FA010193119321933193A1
:1051D00023E018E008E70A95F1F71A95E1F72A9518
:1051E000D1F79E010CA510E0000F111F000F111F39
:1051F000F801E20FF31F019111912191319148A51E
:1052000059A56AA57BA5E0E2F5E0099508A719A7CD
:105210002AA73BA70CA50F5F0CA7B5CF40E050E035
:1052200060E271E408A519A52AA53BA5E0ECF4E02D
:1052300009950093770210937802209379023093B6
:105240007A02B0E24B2EB1E05B2EB1E03B2EB2E031
:105250002B2E49DD0091770210917802209179027E
:1052600030917A023F932F931F930F93BEE6BF9323
:10527000B1EABF93B2E0BF93B0E4BF93C8D9ADB772
:10528000BEB71896ADBFBEBFB0E44B2EB2E05B2EEA
:10529000B3E03B2EB2E02B2E26DDB9B1B3FF07C041
:1052A000B0E14B2EB7E03B2EB2E02B2E3ED45F9008
:1052B0004F903F902F90E096CDBFDEBFDF91CF9112
:1052C0000895CF93DF93CDB7DEB72297CDBFDEBF72
:1052D000219630E040E03615470528F5032F142FBE
:1052E000040D151D08831983032F142F020D131DA0
:1052F0003F922F92180140DD2F903F901881298115
:10530000E12FF22F008323E018E008E70A95F1F778
:105310001A95E1F72A95D1F7032F142F0F5F1F4F2E
:10532000302F412FD8CF2196CDBFDEBFDF91CF9157
:105330000895B9B1B2FD04C0B6B1B0FD01C09DDDA4
:105340000895B9B1B3FF17C000912702003099F456
:1053500000912301003079F400911E02003059F4CD
:10536000B0E0B0933801B0933901BBB1BF7BBBB99A
:10537000B0E0B0933401B9B1B3FF17C0009143015D
:10538000003099F400912301003079F400911E025D
:10539000003059F4B0E0B0933801B0933901BBB19B
:1053A000BF77BBB9B0E0B0933401B9B1B3FF24C04B
:1053B00000912301003001F500913A010130E1F440
:1053C000009146010130C1F4B0E0B0934601B0E075
:1053D000B0933801B0933901B0E0B0932F02B0938D
:1053E0003002B0E0B0934401B0934501BBB1BF7748
:1053F000BBB9BBB1BF7BBBB90895EC2FFD2F0590A6
:105400000D920197E1F70895B5B5BE7FB5BDB5B56D
:10541000BD7FB5BDB5B5BB7FB5BD08952F923F9299
:105420004F9200911E02003009F0FEC040903302FE
:1054300030901D0220901C02AFDA0093630240906E
:10544000370230903802209036022ADB00937C022B
:105450004090280230903402209035029DDA00936B
:105460007B0240902602309025022090290218DB12
:105470000093760200916302013009F03BC0B1E075
:10548000B0932702B0E0B0933102B9B1B3FF24C0AA
:1054900000913202013001F540912A0250912B0215
:1054A00060912C0270912D02009177021091780288
:1054B0002091790230917A02E1E7F3E00995002822
:1054C00000E009F001E0002339F000912E020030E5
:1054D00019F4BBB1B064BBB9B9B1B3FF0BC0009153
:1054E0003202013039F400912E02013019F4BBB1BF
:1054F000B064BBB900917C02013049F5B0E0B093D3
:105500002702B9B1B3FF10C000913202013061F43B
:1055100000912E02003041F4B0E0B0932F02B0931E
:105520003002BBB1BF7BBBB9B9B1B3FF10C00091B2
:105530003202013061F400912E02013041F4B0E0FA
:10554000B0932F02B0933002BBB1BF7BBBB90091C7
:105550007B02013009F03BC0B1E0B0934301B0E001
:10556000B0933102B9B1B3FF24C0009132020130CF
:1055700001F540913F0150914001609141017091CE
:1055800042010091770210917802209179023091C6
:105590007A02E1E7F3E00995002800E009F001E074
:1055A000002339F000912E02003019F4BBB1B0682D
:1055B000BBB9B9B1B3FF0BC000913202013039F46D
:1055C00000912E02013019F4BBB1B068BBB9009153
:1055D0007602013049F5B0E0B0934301B9B1B3FFB1
:1055E00010C000913202013061F400912E020030AF
:1055F00041F4BBB1BF77BBB9B0E0B0934401B09305
:105600004501B9B1B3FF10C000913202013061F41D
:1056100000912E02013041F4B0E0B0934401B09308
:105620004501BBB1BF77BBB9B9B1B3FD3EC0009175
:105630003F02003009F039C000913A01003009F012
:1056400034C02DE01DE208ED0A95F1F71A95E1F757
:105650002A95D1F70000000000913801109139011E
:1056600098012F5F3F4F209338013093390100910B
:105670003D0110913E012017310730F0B9B1B3FD63
:1056800003C0BBB1B064BBB920913801309139017E
:1056900000913B0110913C012017310730F0B9B166
:1056A000B3FD03C0BBB1B068BBB9B9B1B3FD54C061
:1056B00000913A01013009F04FC02DE01DE208EDE4
:1056C0000A95F1F71A95E1F72A95D1F70000000045
:1056D00000913801109139010F5F1F4F009338017D
:1056E00010933901B9B1B3FD0DC0009146010030EE
:1056F00049F4B1E0B0934601BBB1BF7BBBB9BBB1CC
:10570000BF77BBB9209138013091390100913D013B
:1057100010913E012017310750F0B9B1B3FD07C019
:1057200000914601013019F4BBB1B064BBB92091BE
:1057300038013091390100913B0110913C01201753
:10574000310750F0B9B1B3FD07C0009146010130F7
:1057500019F4BBB1B068BBB9B9B1B3FF4CC000918B
:105760002702013009F047C040912A0250912B02D4
:1057700060912C0270912D020091770210917802B5
:105780002091790230917A02E1E7F3E0099500284F
:1057900000E009F001E0002371F100912E020030D9
:1057A00051F500913102003031F500911E020030B8
:1057B00011F500912F02109130020F5F1F4F0093DF
:1057C0002F021093300229E01EE105EE0A95F1F751
:1057D0001A95E1F72A95D1F7000020912F02309118
:1057E000300200913D0110913E010217130718F499
:1057F000BBB1B064BBB9B9B1B3FF32C000912702ED
:10580000013071F500912E02013051F50091310205
:10581000003031F500911E02003011F500912F0289
:10582000109130020F5F1F4F00932F021093300230
:1058300029E01EE105EE0A95F1F71A95E1F72A95A0
:10584000D1F7000020912F023091300200913D01EC
:1058500010913E010217130718F4BBB1B064BBB935
:10586000B9B1B3FF4BC000914301013009F046C00C
:1058700040913F015091400160914101709142017E
:1058800000917702109178022091790230917A028A
:10589000E1E7F3E00995002800E009F001E00023CA
:1058A00069F100912E02003049F50091310200307B
:1058B00029F500911E02003009F500914401109174
:1058C00045010F5F1F4F009344011093450123E0F2
:1058D00018E008E70A95F1F71A95E1F72A95D1F74C
:1058E000209144013091450100913B0110913C0110
:1058F0000217130718F4BBB1B068BBB9B9B1B3FF55
:1059000031C000914301013069F500912E02013050
:1059100049F500913102003029F500911E02003056
:1059200009F500914401109145010F5F1F4F00934D
:1059300044011093450123E018E008E70A95F1F7C8
:105940001A95E1F72A95D1F720914401309145014C
:1059500000913B0110913C010217130718F4BBB1F1
:10596000B068BBB9B9B1B3FF47C040912A025091AA
:105970002B0260912C0270912D0200917702109100
:1059800078022091790230917A02E1E7F3E00995FB
:10599000002800E009F001E0002371F100912E02DF
:1059A000003051F500913102003031F500911E02B6
:1059B000013011F500912F02109130020F5F1F4F3F
:1059C00000932F021093300229E01EE105EE0A95A4
:1059D000F1F71A95E1F72A95D1F7000020912F02EF
:1059E0003091300200913D0110913E0102171307E2
:1059F00018F4BBB1B064BBB9B9B1B3FF46C04091B4
:105A00003F0150914001609141017091420100912C
:105A10007702109178022091790230917A02E1E7C1
:105A2000F3E00995002800E009F001E0002369F1A6
:105A300000912E02003049F500913102003029F525
:105A400000911E02013009F50091440110914501B9
:105A50000F5F1F4F009344011093450123E018E0AE
:105A600008E70A95F1F71A95E1F72A95D1F7209101
:105A700044013091450100913B0110913C01021716
:105A8000130718F4BBB1B068BBB9409158015091ED
:105A9000590160915A0170915B0100917702109158
:105AA00078022091790230917A02E3E1F8E00995D9
:105AB000002800E009F001E0002369F0B9B1B3FF6C
:105AC0000AC000912E02003031F4B0E0B0932F02F2
:105AD000B09330023ED040915401509155016091F5
